:100000000C94C2000C94EA000C94EA000C94020DCB
:100010000C94260D0C944A0D0C94EA000C94EA0002
:100020000C94EA000C94EA000C94EA000C94EA00A8
:100030000C94EA000C94EA000C94EA000C94EA0098
:100040000C9473080C94EA000C94560A0C94990AC8
:100050000C94EA000C94EA000C94EA000C94EA0078
:100060000C94EA000C94EA00BF03E10307042404A3
:100070003C044F045D046604FE07110818081F08BD
:10008000260838084B08520800C201000100110080
:1000900011000C0000E100000A00250025002100ED
:1000A000009600001900390039003600127A00006D
:1000B0001F004600460044008070000022004D00F2
:1000C0004D004A00004B00003600750075007200BC
:1000D000403800004A009C009C00990080250000E8
:1000E0007200EC00EC00E900C0120000E900DA0147
:1000F000DA01D70160090000D701B603B603B303E4
:10010000B0040000B3036E076E076B0758020000CF
:100110006E07DC0EDC0ED80E2C010000DC0EC11DBB
:10012000C11DBE1D000000070002010000030406FF
:1001300000000000000000000102040810204080C0
:100140000102040810200102040810200404040421
:100150000404040402020202020203030303030371
:1001600000000000230026002900000000002500F8
:1001700028002B0000000000240027002A0079013D
:100180005C0B800111241FBECFEFD8E0DEBFCDBFD6
:1001900014E0A0E0B1E0E2E5FFE102C005900D92BD
:1001A000A639B107D9F725E0A6E9B4E001C01D9250
:1001B000AA3AB207E1F710E0C1ECD0E004C0219701
:1001C000FE010E94820FCF3BD107C9F70E94AF0901
:1001D0000C94490F0C940000DC01ED91FC9101900E
:1001E000F081E02D099480919604811163C08CEB1D
:1001F00094E00E94890962E071E08CEB94E00E9437
:100200009D0963E171E08CEB94E00E949D096BE233
:1002100071E08CEB94E00E949D0960E471E08CEB4E
:1002200094E00E949D096BE571E08CEB94E00E94E4
:100230009D0965E771E08CEB94E00E949D096BE8F5
:1002400071E08CEB94E00E949D096FE971E08CEB0A
:1002500094E00E949D0960EB71E08CEB94E00E94B9
:100260009D0960ED71E08CEB94E00E949D098CEBA0
:1002700094E00E9489096DEE71E08CEB94E00E949D
:100280009D0963E072E08CEB94E00E949D096CE1B3
:1002900072E08CEB94E00E949D096FE272E08CEBBF
:1002A00094E00E949D0981E0809396048CEB94E099
:1002B0000C948909089540E051EE60E070E08CEB09
:1002C00094E00E94D40A40E051EE60E070E087E9DB
:1002D00094E00E94E70D62E370E080E090E00E940D
:1002E000E20862E472E08CEB94E00E949D090C94B9
:1002F000F30020E04CE06BE087E994E00C94BC0D47
:1003000087E994E00C94AD0E8CEB94E00E94BC095C
:10031000892B41F08CEB94E00E94E8099093010155
:1003200080930001089562E672E08CEB94E00E94F5
:10033000800987E994E00E94D20B892BC1F46BE21B
:1003400087E994E00E94930C6BE287E994E00E94B5
:10035000930C6BE287E994E00E94930C60EB74E0ED
:1003600080E090E00E94E20864E772E0DECF87E977
:1003700094E00E94D20B892B51F087E994E00E940F
:10038000970BBC018CEB94E00E94EC00F0CF8CEB5F
:1003900094E00C94890967E772E08CEB94E00E948A
:1003A000800987E994E00E94D20B892B11F561E462
:1003B00087E994E00E94930C64E587E994E00E9449
:1003C000930C63E487E994E00E94930C6EE487E960
:1003D00094E00E94930C6DE087E994E00E94930CF6
:1003E00068EC70E080E090E00E94E20864E772E070
:1003F000D4CF87E994E00E94D20B892B51F087E992
:1004000094E00E94970BBC018CEB94E00E94EC00FE
:10041000F0CF8CEB94E00C9489096091000170910D
:10042000010169337105E9F06B32710519F40E941D
:10043000930117C06A32710551F46DE087E994E0C9
:100440000E94930C8CEB94E00E9489090AC06D32E3
:10045000710519F40E94CB0104C087E994E00E9461
:10046000930C87E994E00E94D20B892B09F408953C
:1004700087E994E00E94D20B892B51F087E994E040
:100480000E94970BBC018CEB94E00E94EC00F0CF33
:1004900008950E94930168E872E08CEB94E00E945A
:1004A000800961E487E994E00E94930C64E587E9A0
:1004B00094E00E94930C63E487E994E00E94930C1B
:1004C0006DE487E994E00E94930C6DE087E994E085
:1004D0000E94930C68EE73E080E090E00E94E208D6
:1004E00087E994E00E94D20B892B51F087E994E0D0
:1004F0000E94970BBC018CEB94E00E94EC00F0CFC3
:100500008CEB94E00E9489090E94CB0169E972E0BA
:100510008CEB94E00C949D090E9493016EE972E0CB
:100520008CEB94E00E94800961E487E994E00E94EA
:10053000930C64E587E994E00E94930C63E487E9F7
:1005400094E00E94930C64E587E994E00E94930C88
:100550006DE087E994E00E94930C68EE73E080E020
:1005600090E00E94E20887E994E00E94D20B892B78
:1005700051F087E994E00E94970BBC018CEB94E06A
:100580000E94EC00F0CF8CEB94E00E9489090E945D
:10059000CB0169E972E08CEB94E00C949D090E9418
:1005A000930167EB72E08CEB94E00E94800961E4B8
:1005B00087E994E00E94930C64E587E994E00E9447
:1005C000930C63E487E994E00E94930C64E587E967
:1005D00094E00E94930C63E387E994E00E94930CFB
:1005E00065E487E994E00E94930C68E387E994E06E
:1005F0000E94930C6DE087E994E00E94930C64EFF5
:1006000071E080E090E00E94E20887E994E00E94B7
:10061000D20B892B51F087E994E00E94970BBC0123
:100620008CEB94E00E94EC00F0CF8CEB94E00E9405
:10063000890961ED72E08CEB94E00E94800961E42D
:1006400087E994E00E94930C64E587E994E00E94B6
:10065000930C67E587E994E00E94930C62E587E9D3
:1006600094E00E94930C6DE087E994E00E94930C63
:1006700064EF71E080E090E00E94E20887E994E096
:100680000E94D20B892B51F087E994E00E94970BCE
:10069000BC018CEB94E00E94EC00F0CF8CEB94E07A
:1006A0000E9489096BEE72E08CEB94E00E94800955
:1006B00061E487E994E00E94930C64E587E994E0A3
:1006C0000E94930C61E487E994E00E94930C63E438
:1006D00087E994E00E94930C6DE087E994E00E9422
:1006E000930C64EF71E080E090E00E94E20887E9FB
:1006F00094E00E94D20B892B51F087E994E00E948C
:10070000970BBC018CEB94E00E94EC00F0CF8CEBDB
:1007100094E00E9489090E94CB0169E972E08CEBA8
:1007200094E00C949D09CF93DF93EC010E94930118
:100730006EEF72E08CEB94E00E94800961E487E93F
:1007400094E00E94930C64E587E994E00E94930C86
:1007500063E487E994E00E94930C6DE487E994E0F8
:100760000E94930CFE01F097E830F10508F0D0C02C
:10077000EC5CFF4F60E387E994E00C94820F0E94E9
:10078000930C60E387E994E00E94930C60E387E9AF
:1007900094E00E94930C60E387E994E00E94930C3C
:1007A00060E387E994E00E94930C60E387E994E0BA
:1007B0000E94930C60E387E994E00E94930C67E346
:1007C00021C00E94930C60E387E994E00E94930C9F
:1007D00060E387E994E00E94930C60E387E994E08A
:1007E0000E94930C60E387E994E00E94930C60E31D
:1007F00087E994E00E94930C63E387E994E00E9408
:10080000930C68E387E994E00E94930C8BC00E94EC
:10081000930C60E387E994E00E94930C60E387E91E
:1008200094E00E94930C60E387E994E00E94930CAB
:1008300060E387E994E00E94930C65E387E994E024
:100840000E94930C68E35EC00E94930C60E387E90A
:1008500094E00E94930C60E387E994E00E94930C7B
:1008600060E387E994E00E94930C63E387E994E0F6
:100870000E94930C68E341C00E94930C60E387E9F7
:1008800094E00E94930C60E387E994E00E94930C4B
:1008900061E387E994E00E94930C63E429C00E941D
:1008A000930C60E387E994E00E94930C60E387E98E
:1008B00094E00E94930C65E416C00E94930C60E3E0
:1008C00087E994E00E94930C67E308C00E94930CB0
:1008D00066E387E994E00E94930C68E387E994E07B
:1008E0000E94930C60E387E994E00E94930C60E31C
:1008F00087E994E00E94930C60E387E994E00E940A
:10090000930C60E387E994E00E94930C60E37ACF54
:100910008CEB94E00E94890967E173E08CEB94E032
:100920000E949D096DE087E994E00E94930C64EFBA
:1009300071E080E090E00E94E20887E994E00E9484
:10094000D20B892B51F087E994E00E94970BBC01F0
:100950008CEB94E00E94EC00F0CF8CEB94E00E94D2
:10096000890961ED72E08CEB94E00E94800961E4FA
:1009700087E994E00E94930C64E587E994E00E9483
:10098000930C67E587E994E00E94930C62E587E9A0
:1009900094E00E94930C6DE087E994E00E94930C30
:1009A00064EF71E080E090E00E94E20887E994E063
:1009B0000E94D20B892B51F087E994E00E94970B9B
:1009C000BC018CEB94E00E94EC00F0CF8CEB94E047
:1009D0000E9489096BEE72E08CEB94E00E94800922
:1009E00061E487E994E00E94930C64E587E994E070
:1009F0000E94930C61E487E994E00E94930C63E405
:100A000087E994E00E94930C6DE087E994E00E94EE
:100A1000930C64EF71E080E090E00E94E20887E9C7
:100A200094E00E94D20B892B51F087E994E00E9458
:100A3000970BBC018CEB94E00E94EC00F0CF8CEBA8
:100A400094E00E9489090E94CB0169E972E08CEB75
:100A500094E00E949D0910929604DF91CF91089531
:100A6000EC010E94930164E273E08CEB94E00E943D
:100A7000800961E487E994E00E94930C64E587E9CA
:100A800094E00E94930C62E487E994E00E94930C46
:100A900064E487E994E00E94930CC533D10589F0A2
:100AA0003CF4C333D10559F0E49799F464E30AC0E8
:100AB000C633D10561F0E79761F467E303C063E3F0
:100AC00001C065E387E994E00E94930C0CC066E3E3
:100AD000F9CF8CEB94E00E94890967E173E08CEB1D
:100AE00094E00E949D096DE087E994E00E94930CD8
:100AF00064EF71E080E090E00E94E20887E994E012
:100B00000E94D20B892B51F087E994E00E94970B49
:100B1000BC018CEB94E00E94EC00F0CF8CEB94E0F5
:100B20000E94890961ED72E08CEB94E00E948009DB
:100B300061E487E994E00E94930C64E587E994E01E
:100B40000E94930C67E587E994E00E94930C62E5AC
:100B500087E994E00E94930C6DE087E994E00E949D
:100B6000930C64EF71E080E090E00E94E20887E976
:100B700094E00E94D20B892B51F087E994E00E9407
:100B8000970BBC018CEB94E00E94EC00F0CF8CEB57
:100B900094E00E9489096FE373E08CEB94E00E947B
:100BA000800961E487E994E00E94930C64E587E999
:100BB00094E00E94930C61E487E994E00E94930C16
:100BC00063E487E994E00E94930C6DE087E994E088
:100BD0000E94930C64EF71E080E090E00E94E208D4
:100BE000FFCFCF93DF93EC010E9493016EE573E09A
:100BF0008CEB94E00E94800961E487E994E00E9414
:100C0000930C64E587E994E00E94930C61E487E922
:100C100094E00E94930C60E587E994E00E94930CB5
:100C2000C033D10521F0E19741F461E301C060E3F5
:100C300087E994E00E94930C0AC08CEB94E00E9438
:100C4000890967E173E08CEB94E00E949D096DE0F7
:100C500087E994E00E94930C64EF71E080E090E0FB
:100C60000E94E20887E994E00E94D20B892B51F0A0
:100C700087E994E00E94970BBC018CEB94E00E9402
:100C8000EC00F0CF8CEB94E00E94890961ED72E0FA
:100C90008CEB94E00E94800961E487E994E00E9473
:100CA000930C64E587E994E00E94930C67E587E97B
:100CB00094E00E94930C62E587E994E00E94930C13
:100CC0006DE087E994E00E94930C64EF71E080E0AE
:100CD00090E00E94E20887E994E00E94D20B892B01
:100CE00051F087E994E00E94970BBC018CEB94E0F3
:100CF0000E94EC00F0CF8CEB94E00E9489096BEE2F
:100D000072E08CEB94E00E94800961E487E994E052
:100D10000E94930C64E587E994E00E94930C61E4DF
:100D200087E994E00E94930C63E487E994E00E94D1
:100D3000930C6DE087E994E00E94930C64EF71E0FE
:100D400080E090E00E94E20887E994E00E94D20BE4
:100D5000892B51F087E994E00E94970BBC018CEB42
:100D600094E00E94EC00F0CF8CEB94E00E948909A3
:100D70000E94CB0169E972E08CEB94E00E949D092E
:100D800010929604DF91CF910895CF93DF93EC01F9
:100D90000E94930162E973E08CEB94E00E94800969
:100DA00061E487E994E00E94930C64E587E994E0AC
:100DB0000E94930C6DE487E994E00E94930C64E533
:100DC00087E994E00E94930CC333D10589F03CF489
:100DD000C133D10559F0E29799F462E30AC0C433F4
:100DE000D10561F0E59761F465E303C061E301C0FB
:100DF00063E387E994E00E94930C0CC064E3F9CFAD
:100E00008CEB94E00E94890967E173E08CEB94E03D
:100E10000E949D096DE087E994E00E94930C64EFC5
:100E200071E080E090E00E94E20887E994E00E948F
:100E3000D20B892B51F087E994E00E94970BBC01FB
:100E40008CEB94E00E94EC00F0CF8CEB94E00E94DD
:100E5000890961ED72E08CEB94E00E94800961E405
:100E600087E994E00E94930C64E587E994E00E948E
:100E7000930C67E587E994E00E94930C62E587E9AB
:100E800094E00E94930C6DE087E994E00E94930C3B
:100E900064EF71E080E090E00E94E20887E994E06E
:100EA0000E94D20B892B51F087E994E00E94970BA6
:100EB000BC018CEB94E00E94EC00F0CF8CEB94E052
:100EC0000E9489096BEE72E08CEB94E00E9480092D
:100ED00061E487E994E00E94930C64E587E994E07B
:100EE0000E94930C61E487E994E00E94930C63E410
:100EF00087E994E00E94930C6DE087E994E00E94FA
:100F0000930C64EF71E080E090E00E94E20887E9D2
:100F100094E00E94D20B892B51F087E994E00E9463
:100F2000970BBC018CEB94E00E94EC00F0CF8CEBB3
:100F300094E00E9489090E94CB0169E972E08CEB80
:100F400094E00E949D0910929604DF91CF9108953C
:100F50000E94930162EB73E08CEB94E00E948009A5
:100F600061E487E994E00E94930C64E587E994E0EA
:100F70000E94930C61E487E994E00E94930C60E581
:100F800087E994E00E94930C6DE087E994E00E9469
:100F9000930C68EE73E080E090E00E94E20887E93D
:100FA00094E00E94D20B892B51F087E994E00E94D3
:100FB000970BBC018CEB94E00E94EC00F0CF8CEB23
:100FC00094E00E9489090E94CB0169E972E08CEBF0
:100FD00094E00C949D09E0910001F0910101E93346
:100FE000F10509F471C0F197E830F10508F06CC023
:100FF000E45CFF4F109296040C94820F6DEB73E04B
:101000008CEB94E00E949D098CEB94E00E94BC095B
:10101000892BD1F38CEB94E00E94E8090E949303A2
:1010200053C08CEB94E00E9489090E9449024CC095
:101030008CEB94E00E9489090E94CF0245C08CEBA2
:1010400094E00E9489090E948C023EC062EE73E027
:101050008CEB94E00E949D098CEB94E00E94BC090B
:10106000892BD1F38CEB94E00E94E8090E943005B3
:101070006EE174E08CEB94E00E949D098CEB94E0AF
:101080000E94BC09892BD1F38CEB94E00E94E80903
:101090000E94F10519C08CEB94E00E9489090E941E
:1010A000A80712C06FE374E08CEB94E00E949D09E6
:1010B0008CEB94E00E94BC09892BD1F38CEB94E07B
:1010C0000E94E8090E94C50689E390E0909301011F
:1010D0008093000108950E94EB070E9484010E9402
:1010E0000D020C94F3001F920F920FB60F92112471
:1010F0002F933F938F939F93AF93BF938091B404AB
:101100009091B504A091B604B091B7043091B304A6
:1011100023E0230F2D3720F40196A11DB11D05C03A
:1011200026E8230F0296A11DB11D2093B3048093DE
:10113000B4049093B504A093B604B093B70480911F
:10114000B8049091B904A091BA04B091BB0401967F
:10115000A11DB11D8093B8049093B904A093BA0463
:10116000B093BB04BF91AF919F918F913F912F910D
:101170000F900FBE0F901F9018953FB7F894809175
:10118000B8049091B904A091BA04B091BB0426B5FB
:10119000A89B05C02F3F19F00196A11DB11D3FBFAF
:1011A000BA2FA92F982F8827820F911DA11DB11D3D
:1011B000BC01CD0142E0660F771F881F991F4A9539
:1011C000D1F70895CF92DF92EF92FF92CF93DF9302
:1011D0006B017C010E94BD08EB01C114D104E10444
:1011E000F10479F00E94BD086C1B7D0B683E7340D2
:1011F000A0F381E0C81AD108E108F108C851DC4F1A
:10120000ECCFDF91CF91FF90EF90DF90CF900895DA
:10121000789484B5826084BD84B5816084BD85B5D1
:10122000826085BD85B5816085BDEEE6F0E0808198
:1012300081608083E1E8F0E01082808182608083B9
:10124000808181608083E0E8F0E08081816080833C
:10125000E1EBF0E0808184608083E0EBF0E080816E
:1012600081608083EAE7F0E0808184608083808110
:1012700082608083808181608083808180688083B8
:101280001092C1000895CF92DF92EF92FF920F93D8
:101290001F93CF93DF936C01EB017B01E40EF51EEE
:1012A00000E010E0CE15DF0561F06991D601ED9107
:1012B000FC910190F081E02DC6010995080F191FDE
:1012C000F1CFC801DF91CF911F910F91FF90EF9067
:1012D000DF90CF9008956115710579F0FB010190C1
:1012E0000020E9F73197AF01461B570BDC01ED9168
:1012F000FC910280F381E02D099480E090E0089554
:101300000C946B09DC01ED91FC910190F081E02DD2
:1013100009940F931F93CF93DF93EC016DE00E942C
:1013200082098C016AE0CE010E948209800F911F20
:10133000DF91CF911F910F9108950F931F93CF933A
:10134000DF93EC010E946B098C01CE010E94890998
:10135000800F911FDF91CF911F910F9108950E94EF
:1013600008090E945B01C0E9DAE00E946B0820973F
:10137000E1F30E94900AF9CFFC0124853585F9013B
:10138000E05CFF4F80819181329620813181821B08
:10139000930B8F7399270895DC011C96ED91FC91B6
:1013A0001D97DF01A05CBF4F2D913C9111971296C4
:1013B0008D919C9111972817390739F08D919C9147
:1013C000E80FF91F808190E008958FEF9FEF089557
:1013D000FC01A485B585FD01E05CFF4F20813181D2
:1013E0003296808191812817390779F08081918127
:1013F000A80FB91F8C91208131812F5F3F4F2F7330
:1014000033273183208390E008958FEF9FEF089575
:10141000FC0181A1882329F0A489B5898C9186FFDC
:10142000FBCF11A208950F931F93CF93DF93FC017D
:10143000A685B7858D01005C1F4FE80188819981E1
:1014400001968F739927AD014E5B5F4FEA012881AA
:10145000398182179307D1F3E80128813981A20FDE
:10146000B31F6C93A685B785A05CBF4F11969C9364
:101470008E93A689B7892C9181E090E0078C02C0F9
:10148000880F991F0A94E2F7822B8C9381E081A345
:101490000488F589E02D80818064808381E090E07C
:1014A000DF91CF911F910F91089508951F920F9290
:1014B0000FB60F9211242F934F935F938F939F93A7
:1014C000EF93FF938091C00082FD1CC02091C60065
:1014D000809162059091630501968F7399274091E1
:1014E0006405509165058417950771F0E0916205D8
:1014F000F0916305EE5DFA4F20839093630580932E
:10150000620502C08091C600FF91EF919F918F917B
:101510005F914F912F910F900FBE0F901F901895D4
:101520008CEB94E00E94BC09892B11F00C94550AB5
:1015300008951F920F920FB60F9211242F933F938D
:101540008F939F93EF93FF9320911E0530911F057A
:1015500080912005909121052817390731F4809159
:10156000C1008F7D8093C10014C0E0912005F091EF
:101570002105E252FB4F20818091200590912105A9
:1015800001968F73992790932105809320052093CE
:10159000C600FF91EF919F918F913F912F910F90F6
:1015A0000FBE0F901F901895CF92DF92EF92FF928F
:1015B0000F931F93CF93DF93EC016A017B014115D9
:1015C000514E6105710509F1EC89FD8981E090E0DA
:1015D00008A002C0880F991F0A94E2F7808360E098
:1015E00079E08DE390E0A70196010E94600F8901E8
:1015F0009A0101501109210931093695279517954E
:101600000795980101151041A8F0EC89FD89108219
:1016100060E874E88EE190E0A70196010E94600FF7
:10162000DA01C9010197A109B109B695A795979566
:1016300087959C01E889F9893083EA89FB892083B1
:1016400019A2EE89FF89408181E090E09C010C8C19
:1016500002C0220F331F0A94E2F7242B2083EE8965
:10166000FF8940819C010D8C02C0220F331F0A9418
:10167000E2F7242B2083EE89FF8940819C010E8CA8
:1016800002C0220F331F0A94E2F7242B2083EE8935
:10169000FF8920810F8C02C0880F991F0A94E2F7FE
:1016A000809582238083DF91CF911F910F91FF90CE
:1016B000EF90DF90CF900895ECEBF4E0138212826C
:1016C00088EE93E0A0E0B0E084839583A683B7839F
:1016D00089E794E09183808382E295E0958784870F
:1016E0008EED94E09787868785EC90E0918B808BD8
:1016F00084EC90E0938B828B80EC90E0958B848BD4
:1017000081EC90E0978B868B82EC90E0918F808FBC
:1017100086EC90E0938F828F84E0848F83E0858FC6
:1017200087E0868F85E0878F81E080A308952091F0
:10173000A8053091A90528173907B9F490916605D5
:1017400080916705981789F0E0916605F0E0E85907
:10175000FA4F80812091660530E02F5F3F4F2F7355
:1017600033272093660590E008958FEF9FEF08954B
:101770002091A8053091A9052817390781F4909187
:10178000660580916705981751F0E0916605F0E0D5
:10179000E859FA4F8081082E000C990B08958FEFBD
:1017A0009FEF08952091A8053091A90528173907C2
:1017B00071F4809167052091660590E0805C9F4FF1
:1017C000821B910960E470E00E944C0F089580E054
:1017D00090E008952091A8053091A90528173907B0
:1017E00039F48FB7F89410926705109266058FBF91
:1017F0000895DC015196ED91FC915297908150969D
:101800008C91809589238083089520E001972FEFA4
:101810008F3F9207D9F708952091A8053091A90527
:101820002817390789F0FC01238D2E7F238F2FB7CE
:10183000F89410926705109266059093A90580931D
:10184000A8052FBF81E0089580E00895EF92FF92F0
:101850000F931F93CF93DF93EC018B8DEE85FF8564
:101860009D8581FF04C08081982329F446C0808132
:10187000982309F042C08B899C890E94050C88E05E
:10188000E82EF12C10E001E08D899E890E94050C64
:10189000EE85FF8590818D85892311F0102B03C083
:1018A000802F80951823000F81E0E81AF10861F776
:1018B0008F89988D0E94050C8B8D81FD10958091EC
:1018C00067052091660590E001968F73992730E0B7
:1018D0008217930779F0E0916705F0E0E859FA4F35
:1018E00010838091670590E001968F73992780930C
:1018F000670503C08B8D81608B8FDF91CF911F9126
:101900000F91FF90EF900895611102C00C94F90BB4
:10191000DC015196ED91FC915297208150968C916B
:10192000822B80830895DF92EF92FF920F931F9393
:10193000CF93DF93EC01298D3A8D2115310529F4E0
:1019400081E090E09B838A834BC0162FDFB6F8942A
:101950006B8D669561700E94840C898D9A8D0596B9
:101960000E94050C8B8D98E0E92EF12C01E081FF9F
:1019700018C0802F812321F0CE010E94F90B04C0F2
:1019800061E0CE010E94840C898D9A8D0E94050C25
:10199000000F81E0E81AF10861F7CE010E94F90B0F
:1019A00018C0802F812329F061E0CE010E94840CB1
:1019B00003C0CE010E94F90B898D9A8D0E94050CFF
:1019C000000F81E0E81AF10861F761E0CE010E94A2
:1019D000840CDFBE898D9A8D0E94050C21E030E0D9
:1019E000C901DF91CF911F910F91FF90EF90DF9090
:1019F00008958091A8059091A905009711F00C9485
:101A0000260C08951F920F920FB60F9211242F9358
:101A10003F934F935F936F937F938F939F93AF9376
:101A2000BF93EF93FF930E94F90CFF91EF91BF9149
:101A3000AF919F918F917F916F915F914F913F9166
:101A40002F910F900FBE0F901F9018951F920F921D
:101A50000FB60F9211242F933F934F935F936F9381
:101A60007F938F939F93AF93BF93EF93FF930E94C6
:101A7000F90CFF91EF91BF91AF919F918F917F9161
:101A80006F915F914F913F912F910F900FBE0F90EB
:101A90001F9018951F920F920FB60F9211242F933B
:101AA0003F934F935F936F937F938F939F93AF93E6
:101AB000BF93EF93FF930E94F90CFF91EF91BF91B9
:101AC000AF919F918F917F916F915F914F913F91D6
:101AD0002F910F900FBE0F901F9018951F93CF93CB
:101AE000DF93EC01162F61E0812F0E94DD0E61E093
:101AF000812F0E94190F612F70E0FB01E85CFE4FFF
:101B0000E491E88BFB01E45BFE4FE491F0E0EE0F23
:101B1000FF1FE659FE4F859194919A8B898BDF9137
:101B2000CF911F9108951F93CF93DF93EC01162F50
:101B300060E0812F0E94DD0E8B8D81FD04C061E08D
:101B4000812F0E94190F1C87612F70E0FB01E85C58
:101B5000FE4FE491ED87FB01E45BFE4FE491F0E082
:101B6000EE0FFF1FE05AFE4F859194919F878E875D
:101B7000DF91CF911F9108951F93CF93DF93EC01D5
:101B8000162F1B821A8288EE93E0A0E0B0E08C83CF
:101B90009D83AE83BF8389E894E0998388831C8A00
:101BA0001B8A1E8A1D8A188E1F8A1A8E198E8B8D8B
:101BB0008E7F20FB81F98B8F642FCE010E946E0DEA
:101BC000612FCE01DF91CF911F910C94930DCF9295
:101BD000DF92EF92FF92CF93DF93EC011A8E198E72
:101BE000188E1F8A1E8A1D8A88E890E020E030E067
:101BF000FC01C590D590E590F490C416D506E60694
:101C0000F70619F54CE0429FC001439F900D112447
:101C1000FC01E457FF4F259134913C8B2B8BFC0149
:101C2000E257FF4F259134913E8B2D8BFC01E057FD
:101C3000FF4F25913491388F2F8BFC01EE56FF4FCB
:101C4000859194919A8F898F09C02F5F3F4F0C9691
:101C50002D30310509F0CCCF1C8A1B8A8F89988DD5
:101C6000892B09F444C08C858631E8F59091680091
:101C7000883050F021E08E3008F420E081E001C08F
:101C8000880F2A95EAF701C084E0892B80936800C9
:101C90008C85883038F08E3040F0863148F4ECE6A0
:101CA000F0E008C0EDE6F0E005C0EBE6F0E002C0D1
:101CB000E0E0F0E04081883030F491E001C0990F1D
:101CC0008A95EAF70EC0282F30E08E3018F428509D
:101CD000310902C02E50310991E001C0990F2A95B7
:101CE000EAF7942B9083898D9A8D0E94050CCE0182
:101CF000DF91CF91FF90EF90DF90CF900C940C0C80
:101D0000FC012485263140F5283028F02E3030F0B3
:101D1000ECE6F0E005C0EDE6F0E002C0EBE6F0E056
:101D20003081283038F481E090E001C0880F2A9596
:101D3000EAF70FC0422F50E02E3018F448505109F6
:101D400002C04E50510981E090E001C0880F4A95D1
:101D5000EAF7809583238083089529E834E0FC0125
:101D6000318320830C94800E833081F028F48130FD
:101D700099F08230A1F008958630A9F08730B9F04B
:101D80008430D1F4809180008F7D03C080918000E9
:101D90008F7780938000089584B58F7702C084B5D3
:101DA0008F7D84BD08958091B0008F7703C08091AE
:101DB000B0008F7D8093B0000895CF93DF9390E0C3
:101DC000FC01E85CFE4F2491FC01E45BFE4F849132
:101DD000882361F190E0880F991FFC01EC58FE4FB9
:101DE000C591D491FC01E659FE4FA591B4916111C2
:101DF00009C09FB7F8948881209582238883EC914D
:101E00002E230BC0623061F49FB7F8943881822F83
:101E1000809583238883EC912E2B2C939FBF06C043
:101E20008FB7F894E8812E2B28838FBFDF91CF9155
:101E300008951F93CF93DF93282F30E0F901EC5DD5
:101E4000FE4F8491F901E85CFE4FD491F901E45B07
:101E5000FE4FC491CC23C9F0162F81110E94B40EFD
:101E6000EC2FF0E0EE0FFF1FE659FE4FA591B49165
:101E70008FB7F894111105C09C91ED2FE095E923DF
:101E800002C0EC91ED2BEC938FBFDF91CF911F91AE
:101E90000895F8940C949C0F97FB072E16F4009469
:101EA00007D077FD09D00E94880F07FC05D03EF4CB
:101EB000909581959F4F0895709561957F4F0895F6
:101EC000A1E21A2EAA1BBB1BFD010DC0AA1FBB1F3E
:101ED000EE1FFF1FA217B307E407F50720F0A21BB0
:101EE000B30BE40BF50B661F771F881F991F1A941D
:101EF00069F760957095809590959B01AC01BD0147
:101F0000CF010895EE0FFF1F0590F491E02D099485
:101F1000AA1BBB1B51E107C0AA1FBB1FA617B7070F
:101F200010F0A61BB70B881F991F5A95A9F780952B
:101F30009095BC01CD01089510E0C1ECD0E004C043
:101F4000FE010E94820F2196C23CD107C9F7F89486
:021F5000FFCFC1
:101F52003900436F6D6D616E646573206175746FD6
:101F6200203A0031203A2043686F69736972204336
:101F7200616E616C20526164696F0032203A204CBC
:101F82006972652043616E616C20526164696F0001
:101F920033203A205365742041542074696D656F73
:101FA200757420746F20313030730034203A204C25
:101FB2006972652041542074696D656F757420766D
:101FC200616C75650035203A204368616E67657201
:101FD200204261756420526174650036203A2043C4
:101FE20068616E676572204D6F64652041500037ED
:101FF200203A204C697265204D6F64652041500083
:1020020038203A204368616E676572204D756C74A2
:1020120069205472616E736D6974204D6F6465003E
:1020220039203A204C697265204D756C74692054D0
:1020320072616E736D6974204D6F646500436F6DDC
:102042006D616E646573206D616E75656C6C657330
:10205200203A002A203A2056616C69646572207524
:102062006E6520636F6D6D616E6465002B203A2092
:102072004F7576726972206D6F6465204154002D30
:10208200203A204665726D6572206D6F646520414D
:1020920054004E6520706173207574696C697365B4
:1020A200722064652066696E206465206C69676EC3
:1020B2006500456E676167696E67204154206D6FE8
:1020C200646520002E2000436C6F73696E672041A7
:1020D20054206D6F646520004368616E6E656C20EC
:1020E20056616C7565203A2000446F6E650041545C
:1020F200204D6F64652054696D656F75742056615B
:102102006C7565203A20005365742041542054694F
:102112006D656F757420746F2031303073203A20F2
:10212200004368616E676564206D61646520706557
:10213200726D616E656E74203A20004368616E674D
:102142006573206170706C696564203A2000436891
:10215200616E6E656C20636F6E666967757261741D
:10216200696F6E203A2000556E6B6E6F776E206D30
:102172006F64650042617564205261746520636F0B
:102182006E66696775726174696F6E203A200043EA
:1021920068616E676573206170706C6965642C207C
:1021A200706C65617365207265626F6F7400415077
:1021B200204D6F646520636F6E6669677572617426
:1021C200696F6E203A20004D756C746920547261FB
:1021D2006E736D697420617474656D707473203AE6
:1021E20020004D756C7469205472616E736D697450
:1021F20020636F6E66696775726174696F6E203AEB
:1022020020004150204D6F6465203A2000517565D1
:102212006C6C652062616E646520726164696F2016
:1022220063686F69736972203F202830202D203740
:102232002900426175642052617465203F20333A5F
:1022420039363030202D20343A3139323030202D99
:1022520020353A3338343030202D20363A3537366F
:102262003030202D20373A313135323030004D6F49
:102272006465204150203F20303A5472616E737081
:102282006172656E74202D20313A41504920004E12
:102292006F6D627265206465204D756C74692D5492
:1022A20072616E736D697420656E2042726F616433
:1022B20063617374203F20656E74726520312065FE
:1022C200742035200000000000130A4309BC09E80D
:1022D20009CC09080A00000000930C4309D20B97AD
:0622E2000BB80BEA0B0033
:00000001FF
