:100000000C9489000C94B1000C94B1000C94B100D4
:100010000C94B1000C94B1000C94B1000C94B1009C
:100020000C94B1000C94B1000C94B1000C94B1008C
:100030000C94B1000C94B1000C94B1000C94B1007C
:100040000C94F4010C94B1000C945F040C94A20481
:100050000C94B1000C94B1000C94B1000C94B1005C
:100060000C94B1000C94B1002908B0072D08B30717
:10007000B607BA07BD07C00727082708C307C60782
:10008000C907CC07CF07D2073108DE07E1072708E9
:10009000E507E907EC07EF07270827081408F20728
:1000A000F507F807FB07FE0735080A080D082708BB
:1000B00027081008140818081C0820082408000045
:1000C0000007000201000003040600000000000019
:1000D00000000102040810204080010204081020E2
:1000E00001020408102004040404040404040202AD
:1000F00002020202030303030303000000002500C1
:1001000028002B0000000000240027002A00EF0137
:10011000670511241FBECFEFD8E0DEBFCDBF11E0D1
:10012000A0E0B1E0E2EEF5E102C005900D92A63943
:10013000B107D9F722E0A6E9B1E001C01D92AF37BF
:10014000B207E1F710E0C9E8D0E004C02197FE0152
:100150000E94E90AC738D107C9F70E94B8030C9476
:10016000BB0A0C94000082ED91E00E946505882393
:10017000D1F340E051EE60E070E082ED91E00E944A
:10018000DD040E94A2058AE590E0A0E0B0E0809343
:10019000A8019093A901A093AA01B093AB0188E0B4
:1001A0008093AC0183E48093B00192E49093B10119
:1001B0008093B20184E48093B30185E48093B40119
:1001C00086E48093B50187E48093B60188E4809348
:1001D000B70188EC91E00E94DE0641E050E06FE05C
:1001E00070E088EC91E00E948C0788EC91E00E941E
:1001F000890768EC70E080E090E00E946F0266E0A2
:1002000071E082ED91E00C942A0368EA71E088ECD9
:1002100091E00E94FF08892B49F46AE070E080E0D9
:1002200090E00E946F0266E171E002C069E271E055
:1002300082ED91E00C942A038091980190919901AC
:10024000019709F082C040E150E060919A0182ED8F
:1002500091E00E949F0362E471E082ED91E00E94D0
:100260000D0340E150E060919B0182ED91E00E941E
:100270009F0362E471E082ED91E00E940D0340E192
:1002800050E060919C0182ED91E00E949F0362E446
:1002900071E082ED91E00E940D0340E150E0609139
:1002A0009D0182ED91E00E949F0362E471E082ED86
:1002B00091E00E940D0340E150E060919E0182EDCB
:1002C00091E00E949F0362E471E082ED91E00E9460
:1002D0000D0340E150E060919F0182ED91E00E94AA
:1002E0009F0362E471E082ED91E00E940D0340E122
:1002F00050E06091A00182ED91E00E949F0362E4D2
:1003000071E082ED91E00E940D0340E150E06091C8
:10031000A10182ED91E00E949F0368E471E082ED0B
:1003200091E00E940D034091B8015091B901609194
:10033000BA017091BB012AE030E082ED91E00E94A9
:10034000A6031092990110929801089568EB71E04C
:1003500088EC91E00E94FC09892BC9F48091BC01D2
:1003600090E0A0ECB1E0EAE9F1E09F012A593140C8
:10037000821793071CF02D912193F7CF81E090E035
:10038000909399018093980162E571E00AC068EB4F
:1003900071E088EC91E00E94FC09019731F46BE573
:1003A00071E082ED91E00C942A0308950E94A60169
:1003B0000E941C018091960190919701803127E263
:1003C00092073CF00E94050110929701109296014D
:1003D00008950196909397018093960108956AE09D
:1003E00088EC91E00C94ED051F920F920FB60F92DE
:1003F00011242F933F938F939F93AF93BF9380913B
:10040000CA019091CB01A091CC01B091CD01309166
:10041000C90123E0230F2D3720F40196A11DB11D42
:1004200005C026E8230F0296A11DB11D2093C90126
:100430008093CA019093CB01A093CC01B093CD01DE
:100440008091CE019091CF01A091D001B091D101C6
:100450000196A11DB11D8093CE019093CF01A09371
:10046000D001B093D101BF91AF919F918F913F91F6
:100470002F910F900FBE0F901F9018952FB7F894E3
:100480006091CA017091CB018091CC019091CD0116
:100490002FBF08953FB7F8948091CE019091CF017E
:1004A000A091D001B091D10126B5A89B05C02F3FE6
:1004B00019F00196A11DB11D3FBFBA2FA92F982F8A
:1004C0008827820F911DA11DB11DBC01CD0142E005
:1004D000660F771F881F991F4A95D1F70895CF920D
:1004E000DF92EF92FF92CF93DF936B017C010E942A
:1004F0004A02EB01C114D104E104F10479F00E9435
:100500004A026C1B7D0B683E7340A0F381E0C81A61
:10051000D108E108F108C851DC4FECCFDF91CF9151
:10052000FF90EF90DF90CF900895789484B582602B
:1005300084BD84B5816084BD85B5826085BD85B587
:10054000816085BDEEE6F0E0808181608083E1E836
:10055000F0E010828081826080838081816080836E
:10056000E0E8F0E0808181608083E1EBF0E0808171
:1005700084608083E0EBF0E0808181608083EAE743
:10058000F0E08081846080838081826080838081CC
:10059000816080838081806880831092C10008958B
:1005A000CF92DF92EF92FF920F931F93CF93DF933F
:1005B0006C01EB017B01E40EF51E00E010E0CE15AE
:1005C000DF0561F06991D601ED91FC910190F08118
:1005D000E02DC6010995080F191FF1CFC801DF9161
:1005E000CF911F910F91FF90EF90DF90CF900895E2
:1005F0006115710579F0FB0101900020E9F7319751
:10060000AF01461B570BDC01ED91FC910280F38199
:10061000E02D099480E090E008950C94F802DC014C
:10062000ED91FC910190F081E02D09940F931F93BF
:10063000CF93DF93EC016DE00E940F038C016AE021
:10064000CE010E940F03800F911FDF91CF911F9168
:100650000F9108950F931F93CF93DF93EC010E94A6
:10066000F8028C01CE010E941603800F911FDF91CA
:10067000CF911F910F9108958F929F92AF92BF9249
:10068000CF92DF92EF92FF920F931F93CF93DF935E
:10069000CDB7DEB7A1970FB6F894DEBF0FBECDBFC2
:1006A0006C01142FE52FCB01022F19A2223008F480
:1006B0000AE07E0121E2E20EF11C802E912CA12C99
:1006C000B12C612F7E2FA50194010E94C70A029FC1
:1006D0001019112481E0E81AF1081A3014F4105DA1
:1006E00001C0195CF7011083122FE32FCA01232BDD
:1006F000242B252B31F7B701C6010E94F802A196E1
:100700000FB6F894DEBF0FBECDBFDF91CF911F9122
:100710000F91FF90EF90DF90CF90BF90AF909F90A0
:100720008F9008952115310541F4DC01ED91FC9184
:100730000190F081E02D642F09940C943C039A0100
:10074000462F50E060E070E00C9492030F931F93EB
:10075000CF93DF93EC010E9492038C01CE010E94A3
:100760001603800F911FDF91CF911F910F91089574
:100770000E9495020E94B300C9E9D4E00E94D6010C
:100780002097E1F30E949904F9CFFC012485358577
:10079000F901E05CFF4F80819181329620813181A7
:1007A000821B930B8F7399270895DC011C96ED91A2
:1007B000FC911D97DF01A05CBF4F2D913C911197DB
:1007C00012968D919C9111972817390739F08D91C8
:1007D0009C91E80FF91F808190E008958FEF9FEFC3
:1007E0000895FC01A485B585FD01E05CFF4F2081E3
:1007F00031813296808191812817390779F0808183
:100800009181A80FB91F8C91208131812F5F3F4FBB
:100810002F7333273183208390E008958FEF9FEF6C
:100820000895FC0181A1882329F0A489B5898C91C0
:1008300086FFFBCF11A208950F931F93CF93DF93F1
:10084000FC01A685B7858D01005C1F4FE8018881FA
:10085000998101968F739927AD014E5B5F4FEA0135
:100860002881398182179307D1F3E80128813981E2
:10087000A20FB31F6C93A685B785A05CBF4F1196DE
:100880009C938E93A689B7892C9181E090E0078C88
:1008900002C0880F991F0A94E2F7822B8C9381E0A3
:1008A00081A30488F589E02D80818064808381E0C4
:1008B00090E0DF91CF911F910F91089508951F92BD
:1008C0000F920FB60F9211242F934F935F938F9334
:1008D0009F93EF93FF938091C00082FD1CC02091F5
:1008E000C600809178029091790201968F739927C2
:1008F00040917A0250917B028417950771F0E09144
:100900007802F0917902E85CFD4F208390937902A0
:100910008093780202C08091C600FF91EF919F9171
:100920008F915F914F912F910F900FBE0F901F905D
:10093000189582ED91E00E94C503892B11F00C946B
:100940005E0408951F920F920FB60F9211242F93F9
:100950003F938F939F93EF93FF93209134023091B5
:10096000350280913602909137022817390731F409
:100970008091C1008F7D8093C10014C0E091360248
:10098000F0913702EC50FE4F208180913602909119
:10099000370201968F73992790933702809336021E
:1009A0002093C600FF91EF919F918F913F912F91DE
:1009B0000F900FBE0F901F901895CF92DF92EF927D
:1009C000FF920F931F93CF93DF93EC016A017B019A
:1009D0004115514E6105710509F1EC89FD8981E0F0
:1009E00090E008A002C0880F991F0A94E2F7808364
:1009F00060E079E08DE390E0A70196010E94C70ACC
:100A000089019A010150110921093109369527956B
:100A100017950795980101151041A8F0EC89FD89FB
:100A2000108260E874E88EE190E0A70196010E94D0
:100A3000C70ADA01C9010197A109B109B695A795BD
:100A4000979587959C01E889F9893083EA89FB8924
:100A5000208319A2EE89FF89408181E090E09C010A
:100A60000C8C02C0220F331F0A94E2F7242B208340
:100A7000EE89FF8940819C010D8C02C0220F331F3B
:100A80000A94E2F7242B2083EE89FF8940819C01A0
:100A90000E8C02C0220F331F0A94E2F7242B20830E
:100AA000EE89FF8920810F8C02C0880F991F0A945C
:100AB000E2F7809582238083DF91CF911F910F9180
:100AC000FF90EF90DF90CF90089581E00895E2EDE0
:100AD000F1E01382128288EE93E0A0E0B0E084831C
:100AE0009583A683B78389E791E09183808388E328
:100AF00092E09587848784EF91E09787868785ECDD
:100B000090E0918B808B84EC90E0938B828B80ECD7
:100B100090E0958B848B81EC90E0978B868B82ECB8
:100B200090E0918F808F86EC90E0938F828F84E0AD
:100B3000848F83E0858F87E0868F85E0878F81E0D3
:100B400080A3089561E08AE00E948B0A61E08AE058
:100B50000E944F0A8CB580618CBD8CB580648CBDC1
:100B600061E08DE00E944F0A61E08BE00C944F0A37
:100B70008EBD00000DB407FEFDCF8EB50895FC01BB
:100B800090917E02992381F0913051F48DB380933E
:100B90007C022DB390917D02909592239DBB04C061
:100BA0008FB7F89480937C0280E58CBD81E08DBD89
:100BB00060E080810C948B0A61E0FC0180810E94DE
:100BC0008B0A90917E02992339F080917C029130BA
:100BD00011F48DBB08958FBF08950F931F93CF938A
:100BE000DF931F92CDB7DEB78C0169830E94A20507
:100BF0008981F801808361E00E944F0AC8010F904B
:100C0000DF91CF911F910F910C94DC05EF92FF9231
:100C10001F93CF93DF931F92CDB7DEB77C0169831B
:100C20000E94BF0583E00E94B8056981862F0E945B
:100C3000B80580E00E94B805182FC7010E94DC05A6
:100C4000812F0F90DF91CF911F91FF90EF9008952A
:100C5000CF92DF92EF92FF920F931F93CF93DF9388
:100C600000D01F92CDB7DEB78C01F22E4A835B8392
:100C700069830E94BF0583E00E94B8056981862FC1
:100C80000E94B8054A81E42EC42E5B81D52E8C2D9E
:100C90008E198F1538F480E00E94B805F601819313
:100CA0006F01F5CFC8010F900F900F90DF91CF919A
:100CB0001F910F91FF90EF90DF90CF900C94DC0587
:100CC0000F931F93CF93DF9300D0CDB7DEB78C0186
:100CD0004A8369830E94BF0582E00E94B80569814A
:100CE000862F0E94B8054A81842F0E94B805C8014A
:100CF0000F900F90DF91CF911F910F910C94DC0515
:100D0000CF92DF92EF92FF920F931F93CF93DF93D7
:100D100000D01F92CDB7DEB78C01F22E4A835B83E1
:100D200069830E94BF0582E00E94B8056981862F11
:100D30000E94B8054A81E42EC42E5B81D52E8C2DED
:100D40008E198F1530F4F60181916F010E94B8055C
:100D5000F6CFC8010F900F900F90DF91CF911F91A8
:100D60000F91FF90EF90DF90CF900C94DC050F93E4
:100D70001F93CF93DF9300D01F92CDB7DEB78C01C6
:100D80002B834A8369830E94BF0585E00E94B805D2
:100D90006981862F0E94B8054A81842F0E94B80578
:100DA0002B81822F0E94B805C8010F900F900F90E1
:100DB000DF91CF911F910F910C94DC05EF92FF9280
:100DC0000F931F93CF93DF93CDB7DEB72E970FB658
:100DD000F894DEBF0FBECDBF8C010E94BF0580EC32
:100DE0000E94B805C8010E94DC056AE070E080E05E
:100DF00090E00E946F02CE0101967C018EE0F70127
:100E000011928A95E9F72EE0A70160E3C8010E94DC
:100E100080062EE0A70160E4C8010E9480062EE053
:100E2000A70160E5C8010E94800640E060E6C801B5
:100E30000E94600640E060E7C8010E94600643EA45
:100E40006BE2C8010E94600624E044E660E6C80147
:100E50000E94B70620E040E660E7C8010E94B7069E
:100E600080E090E02E960FB6F894DEBF0FBECDBFA7
:100E7000DF91CF911F910F91FF90EF9008951F93F5
:100E8000CF93DF93EC010E94BF0580EA0E94B80572
:100E900080E00E94B805182FCE010E94DC05812F4A
:100EA000DF91CF911F910895CF92DF92EF92FF9241
:100EB0001F93CF93DF93EC01162F262F40EE6FE0A8
:100EC0000E94B7060E943E026B017C012AE0C20E1E
:100ED000D11CE11CF11C0E943E026C157D058E05A3
:100EE0009F0550F46EE0CE010E940606807E8113BD
:100EF000F2CF80E090E002C081E090E0DF91CF91FE
:100F00001F91FF90EF90DF90CF90089560E80C94D0
:100F1000540760E00C945407CF92DF92EF92FF9257
:100F20001F93CF93DF937C01EB016A010E94860738
:100F3000009709F0AEC081E0C816D104B1F182E09B
:100F4000C816D10421F0CD2809F081C05AC0C031A3
:100F5000D10508F07CC0FE01EC5CFF4F0C94E90A5F
:100F6000C7E8DFEB30C0C4E8D4EA79C0C5E8D2EE08
:100F700017E47EC0C7E8DFEB59C0C6E8D4EB56C023
:100F8000C7E8DFEB57C0C6E8D4EB54C0C5E8D1EBE7
:100F900051C0C6E8D4EB56C0C5E8D1EB53C0C2E897
:100FA000D0E950C0C0E8D0E84DC0C031D10508F04C
:100FB0004EC0FE01EC5BFF4F0C94E90AC7E8DFEF7F
:100FC0004AC0C7E8DFEF1FE053C0C5E8D1EF1EE419
:100FD0004FC0C7E8DFEF43C0C7E8DAEF49C0C7E852
:100FE000DFEF24C0C6E8D0EF21C0C7E8DAEF22C0A7
:100FF000C5E8D1EF23C0C6E8D0EF24C0C2E8D0EDE9
:1010000021C0FE013597EB30F10508F5EC5AFF4F92
:101010000C94E90AC7E8DAEF2AC0C7E8DFEF02C09C
:10102000C7E8DAEF14E024C0C7E8DAEF13E020C025
:10103000C7E8DFEF11E01CC0C6E8DBEF11E418C021
:10104000C7E8DAEF10E014C0C2E8D9EDFBCF81E0C9
:101050001FC0C7E8DFEB1FE10BC0C7E8DFEB17E0FD
:1010600007C0C7E8DFEF1FE303C0C7E8DFEF19E001
:10107000412F6AE2C7010E9460064D2F69E2C70155
:101080000E9460064C2F68E2C7010E94600680E063
:1010900090E0DF91CF911F91FF90EF90DF90CF9084
:1010A00008950F931F93FB014423B1F00383128330
:1010B000890122273327902F9C71802F837048E06D
:1010C000949F800D11248860818355E016950795C3
:1010D0005A95E1F700830DC0C80123E096958795E6
:1010E0002A95E1F780830295000F007E0183138229
:1010F00012821F910F9108954F925F926F927F928B
:10110000AF92BF92CF92DF92EF92FF920F931F9315
:10111000CF93DF93CDB7DEB72D970FB6F894DEBF30
:101120000FBECDBF6C017B015A01FA010081118114
:1011300022813381B901A801442777FD43955527C2
:101140006627772728013901442455246624F0E4D2
:101150007F2237FD05C08FEF97E0A0E0B0E004C02C
:101160008FEF9FEFAFEFBFE1082319232A233B2323
:10117000BE016F5F7F4FC6010E945108F5011481C7
:10118000812F45284628472809F080648D83412F08
:1011900050E0B501685F7F4FCE0106960E94BE0AFF
:1011A00025E0210F8701000F111F0E0D1F1D035792
:1011B0001E4FAE014F5F5F4FF8016181C6010E9473
:1011C000800628E048E0F8016081C6010E94B70669
:1011D00080E090E02D960FB6F894DEBF0FBECDBF35
:1011E000DF91CF911F910F91FF90EF90DF90CF9003
:1011F000BF90AF907F906F905F904F9008958F92C7
:101200009F92AF92BF92CF92DF92EF92FF920F9395
:101210001F93CF93DF9300D000D000D0CDB7DEB7BF
:10122000FB0124812930E8F56B017C0186E0E0E0D8
:10123000F1E0DE01119601900D928A95E1F78E01A1
:101240000F5F1F4F4E01F7E08F0E911CF801A19028
:10125000B1908F01F501EE0FFF1FEA0DFB1DE35763
:10126000FE4F6081C7010E94060683FD17C0A601DC
:10127000B501C70126960FB6F894DEBF0FBECDBFED
:10128000DF91CF911F910F91FF90EF90DF90CF9062
:10129000BF90AF909F908F900C947C080815190513
:1012A000A9F684E090E026960FB6F894DEBF0FBE54
:1012B000CDBFDF91CF911F910F91FF90EF90DF9005
:1012C000CF90BF90AF909F908F9008958F929F92F4
:1012D000AF92BF92CF92DF92EF92FF920F931F9344
:1012E000CF93DF9300D000D000D0CDB7DEB74C0154
:1012F0005A018B01000F111F000F111FF801EB574E
:10130000FE4F25E0AE014F5F5F4F61810E942806CE
:101310008A819981C82ED12C55E0D594C7945A95CD
:10132000E1F728E0929FC00CD11C11240D2C000C79
:10133000EE08FF0883FF20C092E0CC0CDD1CEE1C01
:10134000FF1C9A95D1F78370C80ED11CE11CF11CCB
:10135000FE2CED2CDC2CCC248B81C80ED11CE11C86
:10136000F11CFE2CED2CDC2CCC248C81C80ED11C65
:10137000E11CF11C6894F7F82D812F70293038F5A5
:10138000F801EB57FE4F6081C4012E830E940606D0
:101390002E8183FF02C06894F6F8F501C082D182E5
:1013A000E282F3822483A501485F5F4F0B571E4FF3
:1013B000F8016281C4010E94280620E0F8014381FF
:1013C0006CE2C4010E94B70680E090E002C081E0B8
:1013D00090E026960FB6F894DEBF0FBECDBFDF912A
:1013E000CF911F910F91FF90EF90DF90CF90BF9022
:1013F000AF909F908F9008950F931F93CF93DF939B
:1014000000D0CDB7DEB78C01AB0169835A830E944F
:101410003F0749815A8180FF03C060E070E004C04B
:1014200081FF0BC061E070E0C8010F900F90DF9169
:10143000CF911F910F910C94660985E090E00F9079
:101440000F90DF91CF911F910F910895833081F01C
:1014500028F4813099F08230A1F008958630A9F007
:101460008730B9F08430D1F4809180008F7D03C043
:10147000809180008F7780938000089584B58F7766
:1014800002C084B58F7D84BD08958091B0008F77B0
:1014900003C08091B0008F7D8093B0000895CF93FA
:1014A000DF9390E0FC01EE52FF4F2491FC01EA51E2
:1014B000FF4F8491882361F190E0880F991FFC0110
:1014C000EC5FFE4FC591D491FC01E650FF4FA59112
:1014D000B491611109C09FB7F89488812095822347
:1014E0008883EC912E230BC0623061F49FB7F8948F
:1014F0003881822F809583238883EC912E2B2C9327
:101500009FBF06C08FB7F894E8812E2B28838FBF2A
:10151000DF91CF9108951F93CF93DF93282F30E071
:10152000F901E254FF4F8491F901EE52FF4FD4913B
:10153000F901EA51FF4FC491CC23C9F0162F811154
:101540000E94260AEC2FF0E0EE0FFF1FE650FF4F3F
:10155000A591B4918FB7F894111105C09C91ED2F0E
:10156000E095E92302C0EC91ED2BEC938FBFDF9166
:10157000CF911F910895F8940C94EF0AFB01DC01C0
:1015800002C001900D9241505040D8F70895A1E259
:101590001A2EAA1BBB1BFD010DC0AA1FBB1FEE1FED
:1015A000FF1FA217B307E407F50720F0A21BB30B38
:1015B000E40BF50B661F771F881F991F1A9469F7B4
:1015C00060957095809590959B01AC01BD01CF0110
:1015D0000895EE0FFF1F0590F491E02D0994F89403
:0215E000FFCF3B
:1015E20000000100020049276D2075702C206269FD
:1015F20074636820210063616E20646174612077E6
:10160200656C6C2073656E740063616E2064617436
:101612006120656D697373696F6E206661696C65BF
:10162200640020207C2020002020207C7C7C202044
:1016320020004552524F525F4F4B007265636569FD
:1016420076656420737475666620627574206661BF
:10165200696C656400000000001C04D002C503F13F
:1016620003D5031104606166017071760230313670
:06167200404146505156B4
:00000001FF
