:100000000C9496000C94BE000C94BE000C94BE00A0
:100010000C94BE000C94BE000C94BE000C94BE0068
:100020000C94BE000C94BE000C94BE000C94BE0058
:100030000C94BE000C94BE000C94BE000C94BE0048
:100040000C94C7040C94BE000C9408070C944B0746
:100050000C94BE000C94BE000C94BE000C94BE0028
:100060000C94BE000C94BE001D0346036F03920364
:10007000AF03C603D703E203830A0A0A870A0D0AFD
:10008000100A140A170A1A0A810A810A1D0A200A8C
:10009000230A260A290A2C0A8B0A380A3B0A810AF3
:1000A0003F0A430A460A490A810A810A6E0A4C0A33
:1000B0004F0A520A550A580A8F0A640A670A810AC7
:1000C000810A6A0A6E0A720A760A7A0A7E0A0000B1
:1000D0000007000201000003040600000000000009
:1000E00000000102040810204080010204081020D2
:1000F000010204081020040404040404040402029D
:1001000002020202030303030303000000002300B2
:100110002600290000000000250028002B00000018
:100120000000240027002A00B9010E0811241FBE78
:10013000CFEFD8E0DEBFCDBF11E0A0E0B1E0ECE34F
:10014000F8E102C005900D92A032B107D9F722E084
:10015000A0E2B1E001C01D92AE35B207E1F710E0B8
:10016000C6E9D0E004C02197FE010E94160CC439F4
:10017000D107C9F70E9461060C94E80B0C940000AB
:10018000DC01ED91FC910190F081E02D0994CF9379
:10019000DF93809122018823E1F0C2E2D1E0A0EA5E
:1001A000B1E0FE0181918D9381E0EA32F807D1F749
:1001B00068E971E080E991E00E94590B6AE070E023
:1001C00080E090E00E944205199281E0CA32D8078F
:1001D000D9F7DF91CF91089580913B0180932A0157
:1001E00080913C0180932B01ADE3B1E0E2E2F1E0CC
:1001F0008D91819381E0EA32F807D1F7ECE2F1E0EA
:1002000080912E0190E004969F012C52314082177C
:10021000930714F01192F4CF0895CF93DF9380E108
:100220000E943806C1E0D0E0892B11F0C0E0D0E098
:100230008FE00E943806892B19F080E090E002C020
:1002400082E090E0C80FD91F8EE00E943806892B0B
:1002500019F020E030E002C024E030E0C20FD31FEC
:1002600089E00E943806892B19F080E090E002C0F6
:1002700088E090E0C80FD91F88E00E943806892BDB
:1002800019F040E050E002C040E150E0C40FD51F3B
:1002900087E00E943806892B19F020E030E002C088
:1002A00020E230E0C20FD31F86E00E943806892B7F
:1002B00019F080E090E002C080E490E0C80FD91F00
:1002C00085E00E943806892B19F040E050E002C01A
:1002D00040E850E0C40FD51F84E00E943806892B07
:1002E00019F020E030E002C020E031E0C20FD31F5F
:1002F00083E00E943806892B19F080E090E002C06C
:1003000080E092E0C80FD91F82E00E943806892B56
:1003100019F080E090E002C080E094E08C0F9D1F17
:10032000DF91CF910895CF93DF9383E10E94380648
:10033000C1E0D0E0892B11F0C0E0D0E082E10E9462
:100340003806892B19F080E090E002C082E090E04E
:10035000C80FD91F81E10E943806892B19F080E06F
:1003600090E002C084E090E08C0F9D1FDF91CF9160
:1003700008956AE080E991E00C949408CF93DF93AC
:1003800081EB91E00E946E06892B09F467C081EB36
:1003900091E00E949A068E37910531F080912F01ED
:1003A0008B3809F04DC01BC08EE780932C0161E0B3
:1003B00070E080E090E00E944205CDE2D1E081EB68
:1003C00091E00E949A06899361E070E080E090E0FD
:1003D0000E94420581E0C634D80789F7DFCF8091BB
:1003E0003401811116C0ECE2F1E080912E0190E021
:1003F00004969F012C5231408217930714F01192FA
:10040000F4CFE2E2F1E0119281E0EB32F807D9F7A4
:1004100023C08091200190912101019690932101A8
:1004200080932001ECE2F1E080912E0190E00496AF
:100430009F012C5231408217930774F01192F4CF30
:10044000803919F40E94EC0007C0ECE2F1E011924F
:1004500081E0EB34F807D9F710920001DF91CF91DA
:10046000089581EB91E00E946E06892B29F081EBC3
:1004700091E00E949A06F5CF81EB91E00E946E0612
:10048000892BC9F46BE270E081EB91E00E94C0001F
:100490006BE270E081EB91E00E94C0006BE270E0E3
:1004A00081EB91E00E94C00060EB74E080E090E09E
:1004B0000E944205E1CF08950E94310281EB91E054
:1004C0000E946E06892B29F081EB91E00E949A062A
:1004D000F5CF81EB91E00E946E06892B29F561E44E
:1004E00070E081EB91E00E94C00064E570E081EB78
:1004F00091E00E94C00066E470E081EB91E00E9410
:10050000C00062E570E081EB91E00E94C0006DE008
:1005100070E081EB91E00E94C00068EC70E080E048
:1005200090E00E944205D5CF0895809120019091DE
:1005300021010B97CCF00E945C0268EE73E080E032
:1005400090E00E944205109221011092200181EB5F
:1005500091E00E946E06892B29F081EB91E00E94C8
:100560009A06F5CF1092000108950E94BE010E94E4
:1005700095020C94C70081EB91E00E946E06892BD6
:1005800029F081EB91E00E949A06F5CF81EB91E092
:100590000E946E06892B29F561E470E081EB91E001
:1005A0000E94C00064E570E081EB91E00E94C00011
:1005B00063E470E081EB91E00E94C0006EE470E0C3
:1005C00081EB91E00E94C0006DE070E081EB91E072
:1005D0000E94C00068EC70E080E090E00E9442055C
:1005E000D5CF0895CF93DF93EC010E94310261E4EF
:1005F00070E081EB91E00E94C00064E570E081EB67
:1006000091E00E94C00063E470E081EB91E00E9401
:10061000C0006DE470E081EB91E00E94C000FE013B
:10062000F097E830F10508F0F9C0EC5CFF4F60E3AB
:1006300070E081EB91E00C94160C0E94C00060E326
:1006400070E081EB91E00E94C00060E370E081EB1C
:1006500091E00E94C00060E370E081EB91E00E94B5
:10066000C00060E370E081EB91E00E94C00060E3B5
:1006700070E081EB91E00E94C00060E370E081EBEC
:1006800091E00E94C00067E370E0C4C00E94C00017
:1006900060E370E081EB91E00E94C00060E370E0F5
:1006A00081EB91E00E94C00060E370E081EB91E09B
:1006B0000E94C00060E370E081EB91E00E94C00006
:1006C00060E370E081EB91E00E94C00063E370E0C2
:1006D00081EB91E00E94C00068E370E09BC00E9443
:1006E000C00060E370E081EB91E00E94C00060E335
:1006F00070E081EB91E00E94C00060E370E081EB6C
:1007000091E00E94C00060E370E081EB91E00E9404
:10071000C00065E370E081EB91E00E94C00068E3F7
:1007200070E072C00E94C00060E370E081EB91E075
:100730000E94C00060E370E081EB91E00E94C00085
:1007400060E370E081EB91E00E94C00063E370E041
:1007500081EB91E00E94C00068E370E04FC00E940E
:10076000C00060E370E081EB91E00E94C00060E3B4
:1007700070E081EB91E00E94C00061E370E081EBEA
:1007800091E00E94C00063E470E032C00E94C000AB
:1007900060E370E081EB91E00E94C00060E370E0F4
:1007A00081EB91E00E94C00065E470E01BC00E94F4
:1007B000C00060E370E081EB91E00E94C00067E35D
:1007C00070E00AC00E94C00066E370E081EB91E037
:1007D0000E94C00068E370E081EB91E00E94C000DD
:1007E00060E370E081EB91E00E94C00060E370E0A4
:1007F00081EB91E00E94C00060E370E081EB91E04A
:100800000E94C00060E370E081EB91E00E94C000B4
:1008100060E370E081EB91E00E94C0006DE070E069
:1008200081EB91E00E94C00064EF71E080E090E015
:100830000E94420561E470E081EB91E00E94C000FB
:1008400064E570E081EB91E00E94C00067E570E034
:1008500081EB91E00E94C00062E570E081EB91E0E5
:100860000E94C0006DE070E081EB91E00E94C0004A
:1008700064EF71E080E090E00E94420561E470E086
:1008800081EB91E00E94C00064E570E081EB91E0B3
:100890000E94C00061E470E081EB91E00E94C00022
:1008A00063E470E081EB91E00E94C0006DE070E0D5
:1008B00081EB91E00E94C00064EF71E080E090E085
:1008C0000E944205DF91CF910C94BB0240E051EEB3
:1008D00060E070E081EB91E00E94860762E370E0E7
:1008E00080E090E00E94420562E082E00E94CC0538
:1008F00062E083E00E94CC0562E084E00E94CC05C7
:1009000062E085E00E94CC0562E086E00E94CC05B2
:1009100062E087E00E94CC0562E088E00E94CC059E
:1009200062E089E00E94CC050E940D010E949301C3
:10093000C0960E94F202E8E9F1E082E690E0A0E0D1
:10094000B0E080839183A283B38388E084831086A0
:1009500011861286138614861586168617860E94BF
:10096000490880E991E00E944D0941E050E06FE0C4
:1009700070E080E991E00E94E60980E991E00E9440
:10098000E30968EC70E080E090E00C9442051F926F
:100990000F920FB60F9211242F933F938F939F9333
:1009A000AF93BF938091A9019091AA01A091AB014F
:1009B000B091AC013091A80123E0230F2D3720F432
:1009C0000196A11DB11D05C026E8230F0296A11DA9
:1009D000B11D2093A8018093A9019093AA01A0932F
:1009E000AB01B093AC018091AD019091AE01A091AB
:1009F000AF01B091B0010196A11DB11D8093AD0171
:100A00009093AE01A093AF01B093B001BF91AF91AD
:100A10009F918F913F912F910F900FBE0F901F903C
:100A200018952FB7F8946091A9017091AA0180914F
:100A3000AB019091AC012FBF08953FB7F89480911E
:100A4000AD019091AE01A091AF01B091B00126B57A
:100A5000A89B05C02F3F19F00196A11DB11D3FBFF6
:100A6000BA2FA92F982F8827820F911DA11DB11D84
:100A7000BC01CD0142E0660F771F881F991F4A9580
:100A8000D1F70895CF92DF92EF92FF92CF93DF9349
:100A90006B017C010E941D05EB01C114D104E1042E
:100AA000F10479F00E941D056C1B7D0B683E7340BC
:100AB000A0F381E0C81AD108E108F108C851DC4F61
:100AC000ECCFDF91CF91FF90EF90DF90CF90089522
:100AD000789484B5826084BD84B5816084BD85B519
:100AE000826085BD85B5816085BDEEE6F0E08081E0
:100AF00081608083E1E8F0E0108280818260808301
:100B0000808181608083E0E8F0E080818160808383
:100B1000E1EBF0E0808184608083E0EBF0E08081B5
:100B200081608083EAE7F0E0808184608083808157
:100B300082608083808181608083808180688083FF
:100B40001092C1000895833081F028F4813099F02B
:100B50008230A1F008958630A9F08730B9F0843052
:100B6000D1F4809180008F7D03C0809180008F77C9
:100B700080938000089584B58F7702C084B58F7DFF
:100B800084BD08958091B0008F7703C08091B0003C
:100B90008F7D8093B0000895CF93DF9390E0FC01A8
:100BA000EE51FF4F2491FC01EA50FF4F84918823BE
:100BB00061F190E0880F991FFC01E25EFE4FC59144
:100BC000D491FC01EC5EFE4FA591B491611109C076
:100BD0009FB7F8948881209582238883EC912E23F7
:100BE0000BC0623061F49FB7F8943881822F8095F2
:100BF00083238883EC912E2B2C939FBF06C08FB745
:100C0000F894E8812E2B28838FBFDF91CF91089530
:100C10001F93CF93DF93282F30E0F901E253FF4F6A
:100C20008491F901EE51FF4FD491F901EA50FF4F41
:100C3000C491CC23C9F0162F81110E94A305EC2F7B
:100C4000F0E0EE0FFF1FEC5EFE4FA591B4918FB761
:100C5000F894111105C09C91ED2FE095E92302C095
:100C6000EC91ED2BEC938FBFDF91CF911F91089505
:100C7000CF93DF93282F30E0F901E253FF4F8491A7
:100C8000F901EE51FF4FD491F901EA50FF4FC491A1
:100C9000CC2391F081110E94A305EC2FF0E0EE0F20
:100CA000FF1FE65FFE4FA591B491EC91ED2381E02B
:100CB00090E021F480E002C080E090E0DF91CF91ED
:100CC00008950E9468050E946604C2E4D7E00E946D
:100CD000B5022097E1F30E944207F9CFFC01248579
:100CE0003585F901E05CFF4F80819181329620814A
:100CF0003181821B930B8F7399270895DC011C9619
:100D0000ED91FC911D97DF01A05CBF4F2D913C91AF
:100D1000119712968D919C9111972817390739F0E8
:100D20008D919C91E80FF91F808190E008958FEFDD
:100D30009FEF0895FC01A485B585FD01E05CFF4FA0
:100D4000208131813296808191812817390779F08D
:100D500080819181A80FB91F8C91208131812F5FF3
:100D60003F4F2F7333273183208390E008958FEF17
:100D70009FEF0895FC0181A1882329F0A489B589FA
:100D80008C9186FFFBCF11A208950F931F93CF93F1
:100D9000DF93FC01A685B7858D01005C1F4FE8013C
:100DA0008881998101968F739927AD014E5B5F4FC2
:100DB000EA012881398182179307D1F3E80128815C
:100DC0003981A20FB31F6C93A685B785A05CBF4F76
:100DD00011969C938E93A689B7892C9181E090E01F
:100DE000078C02C0880F991F0A94E2F7822B8C931C
:100DF00081E081A30488F589E02D8081806480836F
:100E000081E090E0DF91CF911F910F9108950895B7
:100E10001F920F920FB60F9211242F934F935F934F
:100E20008F939F93EF93FF938091C00082FD1CC02E
:100E30002091C600809157029091580201968F73BD
:100E400099274091590250915A028417950771F0E1
:100E5000E0915702F0915802E95EFD4F2083909394
:100E600058028093570202C08091C600FF91EF9113
:100E70009F918F915F914F912F910F900FBE0F9087
:100E80001F90189581EB91E00E946E06892B11F05E
:100E90000C94070708951F920F920FB60F9211241A
:100EA0002F933F938F939F93EF93FF932091130280
:100EB000309114028091150290911602281739077B
:100EC00031F48091C1008F7D8093C10014C0E09106
:100ED0001502F0911602ED52FE4F2081809115020D
:100EE0009091160201968F73992790931602809322
:100EF00015022093C600FF91EF919F918F913F9132
:100F00002F910F900FBE0F901F901895CF92DF92E8
:100F1000EF92FF920F931F93CF93DF93EC016A013F
:100F20007B014115514E6105710509F1EC89FD897F
:100F300081E090E008A002C0880F991F0A94E2F7B0
:100F4000808360E079E08DE390E0A70196010E9444
:100F5000F40B89019A0101501109210931093695D3
:100F6000279517950795980101151041A8F0EC8970
:100F7000FD89108260E874E88EE190E0A701960197
:100F80000E94F40BDA01C9010197A109B109B695D4
:100F9000A795979587959C01E889F9893083EA8917
:100FA000FB89208319A2EE89FF89408181E090E0CE
:100FB0009C010C8C02C0220F331F0A94E2F7242BF1
:100FC0002083EE89FF8940819C010D8C02C0220F95
:100FD000331F0A94E2F7242B2083EE89FF89408196
:100FE0009C010E8C02C0220F331F0A94E2F7242BBF
:100FF0002083EE89FF8920810F8C02C0880F991F02
:101000000A94E2F7809582238083DF91CF911F912C
:101010000F91FF90EF90DF90CF900895E1EBF1E01A
:101020001382128288EE93E0A0E0B0E0848395837F
:10103000A683B7838BE091E09183808387E192E080
:101040009587848783ED91E09787868785EC90E08C
:10105000918B808B84EC90E0938B828B80EC90E082
:10106000958B848B81EC90E0978B868B82EC90E063
:10107000918F808F86EC90E0938F828F84E0848FB5
:1010800083E0858F87E0868F85E0878F81E080A36E
:10109000089561E08AE00E94080661E08AE00E940B
:1010A000CC058CB580618CBD8CB580648CBD61E055
:1010B0008DE00E94CC0561E08BE00C94CC058EBDE8
:1010C00000000DB407FEFDCF8EB50895FC01909190
:1010D0005D02992381F0913051F48DB380935B02CE
:1010E0002DB390915C02909592239DBB04C08FB765
:1010F000F89480935B0280E58CBD81E08DBD60E05B
:1011000080810C94080661E0FC0180810E94080641
:1011100090915D02992339F080915B02913011F436
:101120008DBB08958FBF08950F931F93CF93DF93C7
:101130001F92CDB7DEB78C0169830E94490889816F
:10114000F801808361E00E94CC05C8010F90DF9117
:10115000CF911F910F910C948308EF92FF921F93F0
:10116000CF93DF931F92CDB7DEB77C0169830E94D6
:10117000660883E00E945F086981862F0E945F08ED
:1011800080E00E945F08182FC7010E948308812F0A
:101190000F90DF91CF911F91FF90EF9008950F93E3
:1011A0001F93CF93DF9300D0CDB7DEB78C014A8376
:1011B00069830E94660882E00E945F086981862F29
:1011C0000E945F084A81842F0E945F08C8010F9027
:1011D0000F90DF91CF911F910F910C948308CF92C4
:1011E000DF92EF92FF920F931F93CF93DF9300D084
:1011F0001F92CDB7DEB78C01F22E4A835B836983E1
:101200000E94660882E00E945F086981862F0E9422
:101210005F084A81E42EC42E5B81D52E8C2D8E1959
:101220008F1530F4F60181916F010E945F08F6CFAF
:10123000C8010F900F900F90DF91CF911F910F91E8
:10124000FF90EF90DF90CF900C9483080F931F9343
:10125000CF93DF9300D01F92CDB7DEB78C012B83E5
:101260004A8369830E94660885E00E945F0869815D
:10127000862F0E945F084A81842F0E945F082B817D
:10128000822F0E945F08C8010F900F900F90DF918E
:10129000CF911F910F910C948308EF92FF920F93BF
:1012A0001F93CF93DF93CDB7DEB72E970FB6F89489
:1012B000DEBF0FBECDBF8C010E94660880EC0E948D
:1012C0005F08C8010E9483086AE070E080E090E057
:1012D0000E944205CE0101967C018EE0F701119239
:1012E0008A95E9F72EE0A70160E3C8010E94EF08A4
:1012F0002EE0A70160E4C8010E94EF082EE0A701DC
:1013000060E5C8010E94EF0840E060E6C8010E9465
:10131000CF0840E060E7C8010E94CF0843EA6BE2D3
:10132000C8010E94CF0824E044E660E6C8010E949C
:10133000260920E040E660E7C8010E94260980E017
:1013400090E02E960FB6F894DEBF0FBECDBFDF91B2
:10135000CF911F910F91FF90EF900895CF92DF9260
:10136000EF92FF921F93CF93DF93EC01162F262F5E
:1013700040EE6FE00E9426090E9411056B017C017E
:101380002AE0C20ED11CE11CF11C0E9411056C1553
:101390007D058E059F0550F46EE0CE010E94AD08DC
:1013A000807E8113F2CF80E090E002C081E090E087
:1013B000DF91CF911F91FF90EF90DF90CF90089534
:1013C00060E80C94AE0960E00C94AE09CF92DF9215
:1013D000EF92FF921F93CF93DF937C01EB016A01A1
:1013E0000E94E009009709F0AEC081E0C816D10460
:1013F000B1F182E0C816D10421F0CD2809F081C0F6
:101400005AC0C031D10508F07CC0FE01E45CFF4F3A
:101410000C94160CC7E8DFEB30C0C4E8D4EA79C0FE
:10142000C5E8D2EE17E47EC0C7E8DFEB59C0C6E8D6
:10143000D4EB56C0C7E8DFEB57C0C6E8D4EB54C0C6
:10144000C5E8D1EB51C0C6E8D4EB56C0C5E8D1EB36
:1014500053C0C2E8D0E950C0C0E8D0E84DC0C031A8
:10146000D10508F04EC0FE01E45BFF4F0C94160C52
:10147000C7E8DFEF4AC0C7E8DFEF1FE053C0C5E8A9
:10148000D1EF1EE44FC0C7E8DFEF43C0C7E8DAEF93
:1014900049C0C7E8DFEF24C0C6E8D0EF21C0C7E8E5
:1014A000DAEF22C0C5E8D1EF23C0C6E8D0EF24C0F0
:1014B000C2E8D0ED21C0FE013597EB30F10508F50B
:1014C000E45AFF4F0C94160CC7E8DAEF2AC0C7E8BD
:1014D000DFEF02C0C7E8DAEF14E024C0C7E8DAEFB4
:1014E00013E020C0C7E8DFEF11E01CC0C6E8DBEF67
:1014F00011E418C0C7E8DAEF10E014C0C2E8D9ED73
:10150000FBCF81E01FC0C7E8DFEB1FE10BC0C7E8DE
:10151000DFEB17E007C0C7E8DFEF1FE303C0C7E852
:10152000DFEF19E0412F6AE2C7010E94CF084D2F7B
:1015300069E2C7010E94CF084C2F68E2C7010E94F0
:10154000CF0880E090E0DF91CF911F91FF90EF9066
:10155000DF90CF9008950F931F93FB014423B1F0C8
:1015600003831283890122273327902F9C71802FB8
:10157000837048E0949F800D11248860818355E03A
:10158000169507955A95E1F700830DC0C80123E031
:10159000969587952A95E1F780830295000F007E46
:1015A0000183138212821F910F9108954F925F92CF
:1015B0006F927F92AF92BF92CF92DF92EF92FF92A3
:1015C0000F931F93CF93DF93CDB7DEB72D970FB651
:1015D000F894DEBF0FBECDBF6C017B015A01FA014A
:1015E0000081118122813381B901A801442777FD4F
:1015F0004395552766277727280139014424552428
:101600006624F0E47F2237FD05C08FEF97E0A0E06D
:10161000B0E004C08FEF9FEFAFEFBFE108231923C5
:101620002A233B23BE016F5F7F4FC6010E94AB0A96
:10163000F5011481812F45284628472809F0806448
:101640008D83412F50E0B501685F7F4FCE01069634
:101650000E94EB0B25E0210F8701000F111F0E0DDB
:101660001F1D095E1E4FAE014F5F5F4FF801618184
:10167000C6010E94EF0828E048E0F8016081C60139
:101680000E94260980E090E02D960FB6F894DEBF08
:101690000FBECDBFDF91CF911F910F91FF90EF90C3
:1016A000DF90CF90BF90AF907F906F905F904F9002
:1016B00008958F929F92AF92BF92CF92DF92EF9256
:1016C000FF920F931F93CF93DF9300D000D000D0F1
:1016D000CDB7DEB7FB0124812930E8F56B017C0131
:1016E00086E0E1E0F1E0DE01119601900D928A952D
:1016F000E1F78E010F5F1F4F4E01F7E08F0E911C37
:10170000F801A190B1908F01F501EE0FFF1FEA0DD6
:10171000FB1DE95EFE4F6081C7010E94AD0883FD9D
:1017200017C0A601B501C70126960FB6F894DEBF13
:101730000FBECDBFDF91CF911F910F91FF90EF9022
:10174000DF90CF90BF90AF909F908F900C94D60A6F
:1017500008151905A9F684E090E026960FB6F894CE
:10176000DEBF0FBECDBFDF91CF911F910F91FF90D4
:10177000EF90DF90CF90BF90AF909F908F900895A3
:10178000CF92DF92EF92FF920F931F93CF93DF934D
:101790006C01EB017B01E40EF51E00E010E0CE15BC
:1017A000DF0561F06991D601ED91FC910190F08126
:1017B000E02DC6010995080F191FF1CFC801DF916F
:1017C000CF911F910F91FF90EF90DF90CF900895F0
:1017D000F8940C941C0CFB01DC0102C001900D92EA
:1017E00041505040D8F70895A1E21A2EAA1BBB1B06
:1017F000FD010DC0AA1FBB1FEE1FFF1FA217B307DD
:10180000E407F50720F0A21BB30BE40BF50B661FF2
:10181000771F881F991F1A9469F7609570958095B6
:1018200090959B01AC01BD01CF010895EE0FFF1F04
:0C1830000590F491E02D0994F894FFCF8E
:10183C000100000100020000000000C506C00B6E94
:10184C00069A067E06BA063031364041465051564D
:00000001FF
