:100000000C94BA000C94E2000C94E2000C94410BA6
:100010000C94650B0C94890B0C94E2000C94E20098
:100020000C94E2000C94E2000C94E2000C94E200C8
:100030000C94E2000C94E2000C94E2000C94E200B8
:100040000C9473050C94E2000C9495080C94D80859
:100050000C94E2000C94E2000C94E2000C94E20098
:100060000C94E2000C94E2001D043F0461047E0441
:100070009604A904B704C0040000000700020100B0
:100080000003040600000000000000000102040854
:1000900010204080010204081020010204081020F2
:1000A000040404040404040402020202020203031E
:1000B00003030303000000002300260029000000C2
:1000C0000000250028002B0000000000240027006D
:1000D0002A0000C201000100110011000C0000E123
:1000E00000000A00250025002100009600001900EC
:1000F000390039003600127A00001F004600460021
:1001000044008070000022004D004D004A00004B6A
:1001100000003600750075007200403800004A008B
:100120009C009C009900802500007200EC00EC000F
:10013000E900C0120000E900DA01DA01D701600924
:100140000000D701B603B603B303B0040000B30345
:100150006E076E076B07580200006E07DC0EDC0EA0
:10016000D80E2C010000DC0EC11DC11DBE1DD70123
:100170009B09E30111241FBECFEFD8E0DEBFCDBF46
:1001800011E0A0E0B1E0E6EAFAE102C005900D92CC
:10019000A43AB107D9F723E0A4EAB1E001C01D9267
:1001A000A133B207E1F710E0C9EBD0E004C021971A
:1001B000FE010E942C0DC73BD107C9F70E94EE0734
:1001C0000C94F30C0C9400000F931F93CF93DF93C8
:1001D00065E171E083E492E00E943E076091BD0119
:1001E0006093AC0183E492E00E9440076091BE01FD
:1001F0006093AD0183E492E00E9440076BE171E0FF
:1002000083E492E00E943E070FEB11E0C4EAD1E0E4
:10021000F80161918F01699383E492E00E944007A5
:10022000F1E0CC3ADF07A1F783E492E00E944707B0
:10023000EEEAF1E08091B00190E004969F012E5A21
:1002400031408217930714F01192F4CFDF91CF91D0
:100250001F910F910895CF93DF9380E10E94D806FC
:10026000C1E0D0E0892B11F0C0E0D0E08FE00E9427
:10027000D806892B19F080E090E002C082E090E07F
:10028000C80FD91F8EE00E94D806892B19F020E0F4
:1002900030E002C024E030E0C20FD31F89E00E94AA
:1002A000D806892B19F080E090E002C088E090E049
:1002B000C80FD91F88E00E94D806892B19F040E0AA
:1002C00050E002C040E150E0C40FD51F87E00E941B
:1002D000D806892B19F020E030E002C020E230E09F
:1002E000C20FD31F86E00E94D806892B19F080E048
:1002F00090E002C080E490E0C80FD91F85E00E9422
:10030000D806892B19F040E050E002C040E850E0E8
:10031000C40FD51F84E00E94D806892B19F020E075
:1003200030E002C020E031E0C20FD31F83E00E9422
:10033000D806892B19F080E090E002C080E092E0BE
:10034000C80FD91F82E00E94D806892B19F080E0DF
:1003500090E002C080E094E08C0F9D1FDF91CF9170
:100360000895CF93DF9383E10E94D806C1E0D0E0E7
:10037000892B11F0C0E0D0E082E10E94D806892BE1
:1003800019F080E090E002C082E090E0C80FD91F31
:1003900081E10E94D806892B19F080E090E002C02C
:1003A00084E090E08C0F9D1FDF91CF91089520E0B5
:1003B0004CE06BE08EE192E00E94FB0B8091130118
:1003C0008093060108958EE192E00C94EC0CCF939B
:1003D000DF9383E492E00E94FB07892B09F1C2E1DD
:1003E000D2E083E492E00E94FB07892B79F083E45A
:1003F00092E00E942708899361E070E080E090E03D
:100400000E94E20582E0CA31D80759F74AE050E07D
:100410006091120283E492E0DF91CF910C94D707B0
:10042000DF91CF9108950F931F93CF93DF938EE1C8
:1004300092E00E94110A892B09F46CC0CEEAD1E047
:100440008E010E5A11408EE192E00E94110A892B12
:1004500031F08EE192E00E94D6098993F1CF80912C
:10046000B1018B3809F050C08091B60181112BC0C9
:1004700064E271E083E492E00E943E076BE271E087
:1004800083E492E00E943E074AE050E06091B501AB
:1004900083E492E00E94D00765E471E083E492E097
:1004A0000E945B07EEEAF1E01192CF018E5A914073
:1004B00008171907CCF7E2E1F2E0119282E0EB3184
:1004C000F807D9F725C080911C0290911D02019672
:1004D00090931D0280931C026EE471E083E492E02D
:1004E0000E943E074AE050E06091B60183E492E04A
:1004F0000E94D707EEEAF1E01192CF018E5A9140A7
:1005000008171907CCF704C0803911F40E94E400E1
:1005100010921401DF91CF911F910F9108950F93C5
:100520001F93CF93DF9380911401882339F080913A
:100530001A0290911B02019609F06DC0809112027F
:10054000882309F468C08EE192E00E94110A892B89
:1005500009F061C080911301811103C081E0809393
:100560001301C2E0D1E069918EE192E00E94D20ACB
:1005700081E0C530D807B9F705E011E0D0E0F80117
:1005800061918F01D60F8EE192E00E94D20AF1E0D4
:1005900003311F07A1F7C09100016C2F8EE192E09B
:1005A0000E94D20A60910101C60FCD0F8EE192E048
:1005B0000E94D20A02E112E0F80161918F01C60F98
:1005C0008EE192E00E94D20AF2E00A311F07A1F701
:1005D0006C2F60958EE192E00E94D20A81E08093B8
:1005E000140110921B0210921A02809113018F5F66
:1005F0008093130162E370E080E090E00E94E205E6
:1006000083E492E00E94FB07892B29F183E492E0C6
:100610000E942708F5CF809114018823E1F0809192
:100620001A0290911B02019690931B0280931A026A
:10063000029689F480911C0290911D02019690937C
:100640001D0280931C026CE671E083E492E00E943C
:100650005B0710921401DF91CF911F910F910895C4
:100660008EE192E00E94110A892B29F08EE192E03E
:100670000E94D609F5CF8EE192E00E94110A892BE3
:10068000B1F46BE28EE192E00E94D20A6BE28EE15D
:1006900092E00E94D20A6BE28EE192E00E94D20ABE
:1006A00060EB74E080E090E00E94E205E4CF089502
:1006B0000E9430038EE192E00E94110A892B29F0FA
:1006C0008EE192E00E94D609F5CF8EE192E00E9481
:1006D000110A892B01F561E48EE192E00E94D20AB1
:1006E00064E58EE192E00E94D20A66E48EE192E037
:1006F0000E94D20A62E58EE192E00E94D20A6DE089
:100700008EE192E00E94D20A68EC70E080E090E016
:100710000E94E205DACF089580911C0290911D029B
:100720000B9754F169E771E083E492E00E945B0764
:100730000E94580368EE73E080E090E00E94E205BA
:1007400010921D0210921C028EE192E00E94110A8A
:10075000892B29F08EE192E00E94D609F5CF83E43F
:1007600092E00E94FB07892B29F083E492E00E942B
:100770002708F5CF1092140108950E94E7010E9406
:100780008F020E9413020C948C038EE192E00E946F
:10079000110A892B29F08EE192E00E94D609F5CF4B
:1007A0008EE192E00E94110A892B01F561E48EE14D
:1007B00092E00E94D20A64E58EE192E00E94D20AA1
:1007C00063E48EE192E00E94D20A6EE48EE192E050
:1007D0000E94D20A6DE08EE192E00E94D20A68EC9B
:1007E00070E080E090E00E94E205DACF0895CF93B8
:1007F000DF93EC010E94300361E48EE192E00E94FD
:10080000D20A64E58EE192E00E94D20A63E48EE1AE
:1008100092E00E94D20A6DE48EE192E00E94D20A38
:10082000FE01F097E830F10508F0CFC0EC5CFF4F17
:1008300060E38EE192E00C942C0D0E94D20A60E3FA
:100840008EE192E00E94D20A60E38EE192E00E9483
:10085000D20A60E38EE192E00E94D20A60E38EE168
:1008600092E00E94D20A60E38EE192E00E94D20AF6
:1008700060E38EE192E00E94D20A67E3A2C00E9488
:10088000D20A60E38EE192E00E94D20A60E38EE138
:1008900092E00E94D20A60E38EE192E00E94D20AC6
:1008A00060E38EE192E00E94D20A60E38EE192E082
:1008B0000E94D20A63E38EE192E00E94D20A68E3CA
:1008C00080C00E94D20A60E38EE192E00E94D20AC8
:1008D00060E38EE192E00E94D20A60E38EE192E052
:1008E0000E94D20A60E38EE192E00E94D20A65E3A0
:1008F0008EE192E00E94D20A68E35EC00E94D20AB2
:1009000060E38EE192E00E94D20A60E38EE192E021
:100910000E94D20A60E38EE192E00E94D20A63E371
:100920008EE192E00E94D20A68E341C00E94D20A9E
:1009300060E38EE192E00E94D20A60E38EE192E0F1
:100940000E94D20A61E38EE192E00E94D20A63E43F
:1009500029C00E94D20A60E38EE192E00E94D20A8E
:1009600060E38EE192E00E94D20A65E416C00E9424
:10097000D20A60E38EE192E00E94D20A67E308C0E7
:100980000E94D20A66E38EE192E00E94D20A68E3F6
:100990008EE192E00E94D20A60E38EE192E00E9432
:1009A000D20A60E38EE192E00E94D20A60E38EE117
:1009B00092E00E94D20A60E38EE192E00E94D20AA5
:1009C00060E38EE192E00E94D20A6DE08EE192E057
:1009D0000E94D20A64EF71E080E090E00E94E2059C
:1009E00061E48EE192E00E94D20A64E58EE192E039
:1009F0000E94D20A67E58EE192E00E94D20A62E587
:100A00008EE192E00E94D20A6DE08EE192E00E94B7
:100A1000D20A64EF71E080E090E00E94E20561E4B8
:100A20008EE192E00E94D20A64E58EE192E00E949B
:100A3000D20A61E48EE192E00E94D20A63E48EE180
:100A400092E00E94D20A6DE08EE192E00E94D20A0A
:100A500064EF71E080E090E00E94E205DF91CF91C9
:100A60000C94C50340E051EE60E070E083E492E056
:100A70000E94130940E051EE60E070E08EE192E0E8
:100A80000E94260C62E370E080E090E00E94E205A4
:100A900062E082E00E946C0662E083E00E946C06E5
:100AA00062E084E00E946C0662E085E00E946C06D1
:100AB00062E086E00E946C0662E087E00E946C06BD
:100AC00062E088E00E946C0662E089E00E946C06A9
:100AD0000E942B01E0E0F1E0818390830E94B1014C
:100AE000C0960C94F7031F920F920FB60F92112429
:100AF0002F933F938F939F93AF93BF9380913B022C
:100B000090913C02A0913D02B0913E0230913A0298
:100B100023E0230F2D3720F40196A11DB11D05C040
:100B200026E8230F0296A11DB11D20933A0280935F
:100B30003B0290933C02A0933D02B0933E02809111
:100B40003F0290914002A0914102B0914202019671
:100B5000A11DB11D80933F0290934002A0934102DA
:100B6000B0934202BF91AF919F918F913F912F918E
:100B70000F900FBE0F901F9018953FB7F89480917B
:100B80003F0290914002A0914102B091420226B5ED
:100B9000A89B05C02F3F19F00196A11DB11D3FBFB5
:100BA000BA2FA92F982F8827820F911DA11DB11D43
:100BB000BC01CD0142E0660F771F881F991F4A953F
:100BC000D1F70895CF92DF92EF92FF92CF93DF9308
:100BD0006B017C010E94BD05EB01C114D104E1044D
:100BE000F10479F00E94BD056C1B7D0B683E7340DB
:100BF000A0F381E0C81AD108E108F108C851DC4F20
:100C0000ECCFDF91CF91FF90EF90DF90CF900895E0
:100C1000789484B5826084BD84B5816084BD85B5D7
:100C2000826085BD85B5816085BDEEE6F0E080819E
:100C300081608083E1E8F0E01082808182608083BF
:100C4000808181608083E0E8F0E080818160808342
:100C5000E1EBF0E0808184608083E0EBF0E0808174
:100C600081608083EAE7F0E0808184608083808116
:100C700082608083808181608083808180688083BE
:100C80001092C1000895833081F028F4813099F0EA
:100C90008230A1F008958630A9F08730B9F0843011
:100CA000D1F4809180008F7D03C0809180008F7788
:100CB00080938000089584B58F7702C084B58F7DBE
:100CC00084BD08958091B0008F7703C08091B000FB
:100CD0008F7D8093B0000895CF93DF9390E0FC0167
:100CE000E457FF4F2491FC01E056FF4F8491882385
:100CF00061F190E0880F991FFC01E853FF4FC59107
:100D0000D491FC01E254FF4FA591B491611109C047
:100D10009FB7F8948881209582238883EC912E23B5
:100D20000BC0623061F49FB7F8943881822F8095B0
:100D300083238883EC912E2B2C939FBF06C08FB703
:100D4000F894E8812E2B28838FBFDF91CF910895EF
:100D50001F93CF93DF93282F30E0F901E858FF4F1E
:100D60008491F901E457FF4FD491F901E056FF4F08
:100D7000C491CC23C9F0162F81110E944306EC2F99
:100D8000F0E0EE0FFF1FE254FF4FA591B4918FB733
:100D9000F894111105C09C91ED2FE095E92302C054
:100DA000EC91ED2BEC938FBFDF91CF911F910895C4
:100DB000CF93DF93282F30E0F901E858FF4F84915B
:100DC000F901E457FF4FD491F901E056FF4FC49168
:100DD000CC2391F081110E944306EC2FF0E0EE0F3E
:100DE000FF1FEC54FF4FA591B491EC91ED2381E0EE
:100DF00090E021F480E002C080E090E0DF91CF91AC
:100E00000895CF92DF92EF92FF920F931F93CF93AB
:100E1000DF936C01EB017B01E40EF51E00E010E0B6
:100E2000CE15DF0561F06991D601ED91FC9101903D
:100E3000F081E02DC6010995080F191FF1CFC801F7
:100E4000DF91CF911F910F91FF90EF90DF90CF90A6
:100E500008956115710579F0FB0101900020E9F713
:100E60003197AF01461B570BDC01ED91FC910280DD
:100E7000F381E02D099480E090E008950C94290717
:100E8000DC01ED91FC910190F081E02D09940F932C
:100E90001F93CF93DF93EC016DE00E9440078C011C
:100EA0006AE0CE010E944007800F911FDF91CF9131
:100EB0001F910F9108950F931F93CF93DF93EC0130
:100EC0000E9429078C01CE010E944707800F911FC5
:100ED000DF91CF911F910F9108958F929F92AF92C2
:100EE000BF92CF92DF92EF92FF920F931F93CF9317
:100EF000DF93CDB7DEB7A1970FB6F894DEBF0FBE74
:100F0000CDBF6C01142FE52FCB01022F19A2223087
:100F100008F40AE07E0121E2E20EF11C802E912C01
:100F2000A12CB12C612F7E2FA50194010E940A0DE6
:100F3000029F1019112481E0E81AF1081A3014F404
:100F4000105D01C0195CF7011083122FE32FCA0155
:100F5000232B242B252B31F7B701C6010E9429072B
:100F6000A1960FB6F894DEBF0FBECDBFDF91CF9133
:100F70001F910F91FF90EF90DF90CF90BF90AF90B7
:100F80009F908F9008952115310541F4DC01ED917A
:100F9000FC910190F081E02D642F09940C946D0771
:100FA0009A01462F50E060E070E00C94C3070F9365
:100FB0001F93CF93DF93EC019A01462F50E060E03E
:100FC00070E00E94C3078C01CE010E944707800F8A
:100FD000911FDF91CF911F910F9108950E940806F4
:100FE0000E943205CFECD8E00E94BD032097E1F3C8
:100FF0000E94CF08F9CFFC0124853585F901E05C1A
:10100000FF4F80819181329620813181821B930B29
:101010008F7399270895DC011C96ED91FC911D9723
:10102000DF01A05CBF4F2D913C91119712968D91DD
:101030009C9111972817390739F08D919C91E80FF1
:10104000F91F808190E008958FEF9FEF0895FC01D4
:10105000A485B585FD01E05CFF4F2081318132968A
:10106000808191812817390779F080819181A80FBB
:10107000B91F8C91208131812F5F3F4F2F73332710
:101080003183208390E008958FEF9FEF0895FC0156
:1010900081A1882329F0A489B5898C9186FFFBCF93
:1010A00011A208950F931F93CF93DF93FC01A685A0
:1010B000B7858D01005C1F4FE801888199810196F9
:1010C0008F739927AD014E5B5F4FEA01288139810B
:1010D00082179307D1F3E80128813981A20FB31F4A
:1010E0006C93A685B785A05CBF4F11969C938E9399
:1010F000A689B7892C9181E090E0078C02C0880F07
:10110000991F0A94E2F7822B8C9381E081A30488D3
:10111000F589E02D80818064808381E090E0DF911B
:10112000CF911F910F91089508951F920F920FB6BE
:101130000F9211242F934F935F938F939F93EF936D
:10114000FF938091C00082FD1CC02091C600809159
:10115000E9029091EA0201968F7399274091EB0280
:101160005091EC028417950771F0E091E902F0913B
:10117000EA02E755FD4F20839093EA028093E9024B
:1011800002C08091C600FF91EF919F918F915F9176
:101190004F912F910F900FBE0F901F90189583E4E1
:1011A00092E00E94FB07892B11F00C94940808959B
:1011B0001F920F920FB60F9211242F933F938F938C
:1011C0009F93EF93FF932091A5023091A602809107
:1011D000A7029091A8022817390731F48091C10025
:1011E0008F7D8093C10014C0E091A702F091A80206
:1011F000EB59FD4F20818091A7029091A8020196A2
:101200008F7399279093A8028093A7022093C6001A
:10121000FF91EF919F918F913F912F910F900FBE72
:101220000F901F901895CF92DF92EF92FF920F933D
:101230001F93CF93DF93EC016A017B014115514E5F
:101240006105710509F1EC89FD8981E090E008A054
:1012500002C0880F991F0A94E2F7808360E079E06A
:101260008DE390E0A70196010E940A0D89019A0181
:1012700001501109210931093695279517950795D0
:10128000980101151041A8F0EC89FD89108260E8F1
:1012900074E88EE190E0A70196010E940A0DDA0140
:1012A000C9010197A109B109B695A79597958795A9
:1012B0009C01E889F9893083EA89FB89208319A296
:1012C000EE89FF89408181E090E09C010C8C02C096
:1012D000220F331F0A94E2F7242B2083EE89FF8923
:1012E00040819C010D8C02C0220F331F0A94E2F74B
:1012F000242B2083EE89FF8940819C010E8C02C043
:10130000220F331F0A94E2F7242B2083EE89FF89F2
:1013100020810F8C02C0880F991F0A94E2F78095F4
:1013200082238083DF91CF911F910F91FF90EF90E7
:10133000DF90CF900895E3E4F2E01382128288EE0A
:1013400093E0A0E0B0E084839583A683B78388E828
:1013500091E09183808389EA92E09587848785E68E
:1013600092E09787868785EC90E0918B808B84EC68
:1013700090E0938B828B80EC90E0958B848B81EC5A
:1013800090E0978B868B82EC90E0918F808F86EC3B
:1013900090E0938F828F84E0848F83E0858F87E055
:1013A000868F85E0878F81E080A3089520912F03A9
:1013B0003091300328173907B9F49091ED028091EC
:1013C000EE02981789F0E091ED02F0E0E151FD4F57
:1013D00080812091ED0230E02F5F3F4F2F73332744
:1013E0002093ED0290E008958FEF9FEF08952091F4
:1013F0002F03309130032817390781F49091ED02C3
:101400008091EE02981751F0E091ED02F0E0E15189
:10141000FD4F8081082E000C990B08958FEF9FEFF0
:10142000089520912F03309130032817390771F464
:101430008091EE022091ED0290E0805C9F4F821B34
:10144000910960E470E00E94F60C089580E090E05D
:10145000089520912F03309130032817390739F46C
:101460008FB7F8941092EE021092ED028FBF08959C
:10147000DC015196ED91FC915297908150968C91A0
:10148000809589238083089520E001972FEF8F3F77
:101490009207D9F7089520912F0330913003281730
:1014A000390789F0FC01238D2E7F238F2FB7F89405
:1014B0001092EE021092ED029093300380932F036E
:1014C0002FBF81E0089580E00895EF92FF920F937F
:1014D0001F93CF93DF93EC018B8DEE85FF859D8568
:1014E00081FF04C08081982329F446C0808198231D
:1014F00009F042C08B899C890E94440A88E0E82E4A
:10150000F12C10E001E08D899E890E94440AEE854D
:10151000FF8590818D85892311F0102B03C0802FCA
:1015200080951823000F81E0E81AF10861F78F8990
:10153000988D0E94440A8B8D81FD10958091EE025A
:101540002091ED0290E001968F73992730E0821789
:10155000930779F0E091EE02F0E0E151FD4F108346
:101560008091EE0290E001968F7399278093EE02AE
:1015700003C08B8D81608B8FDF91CF911F910F9175
:10158000FF90EF900895611102C00C94380ADC01BD
:101590005196ED91FC915297208150968C91822B1F
:1015A00080830895DF92EF92FF920F931F93CF9362
:1015B000DF93EC01298D3A8D2115310529F481E065
:1015C00090E09B838A834BC0162FDFB6F8946B8D17
:1015D000669561700E94C30A898D9A8D05960E9456
:1015E000440A8B8D98E0E92EF12C01E081FF18C0B0
:1015F000802F812321F0CE010E94380A04C061E0CF
:10160000CE010E94C30A898D9A8D0E94440A000F60
:1016100081E0E81AF10861F7CE010E94380A18C08B
:10162000802F812329F061E0CE010E94C30A03C00C
:10163000CE010E94380A898D9A8D0E94440A000FBB
:1016400081E0E81AF10861F761E0CE010E94C30A67
:10165000DFBE898D9A8D0E94440A21E030E0C901E5
:10166000DF91CF911F910F91FF90EF90DF90089540
:1016700080912F0390913003009711F00C94650A2C
:1016800008951F920F920FB60F9211242F933F933C
:101690004F935F936F937F938F939F93AF93BF937A
:1016A000EF93FF930E94380BFF91EF91BF91AF91A1
:1016B0009F918F917F916F915F914F913F912F916A
:1016C0000F900FBE0F901F9018951F920F920FB69C
:1016D0000F9211242F933F934F935F936F937F93B8
:1016E0008F939F93AF93BF93EF93FF930E94380B19
:1016F000FF91EF91BF91AF919F918F917F916F91EA
:101700005F914F913F912F910F900FBE0F901F90BF
:1017100018951F920F920FB60F9211242F933F939B
:101720004F935F936F937F938F939F93AF93BF93E9
:10173000EF93FF930E94380BFF91EF91BF91AF9110
:101740009F918F917F916F915F914F913F912F91D9
:101750000F900FBE0F901F9018951F93CF93DF939C
:10176000EC01162F61E0812F0E946C0661E0812F51
:101770000E94A806612F70E0FB01E457FF4FE4913F
:10178000E88BFB01E056FF4FE491F0E0EE0FFF1F06
:10179000E254FF4F859194919A8B898BDF91CF9181
:1017A0001F9108951F93CF93DF93EC01162F60E0F4
:1017B000812F0E946C068B8D81FD04C061E0812F1A
:1017C0000E94A8061C87612F70E0FB01E457FF4FC1
:1017D000E491ED87FB01E056FF4FE491F0E0EE0F5E
:1017E000FF1FEC54FF4F859194919F878E87DF9167
:1017F000CF911F9108951F93CF93DF93EC01162F84
:101800001B821A8288EE93E0A0E0B0E08C839D8377
:10181000AE83BF8388E991E0998388831C8A1B8A01
:101820001E8A1D8A188E1F8A1A8E198E8B8D8E7FA6
:1018300020FB81F98B8F642FCE010E94AD0B612FAD
:10184000CE01DF91CF911F910C94D20BCF92DF92FA
:10185000EF92FF92CF93DF93EC011A8E198E188EC0
:101860001F8A1E8A1D8A82ED90E020E030E0FC0194
:10187000C590D590E590F490C416D506E606F70617
:1018800019F54CE0429FC001439F900D1124FC01CB
:10189000EA52FF4F259134913C8B2B8BFC01E8528F
:1018A000FF4F259134913E8B2D8BFC01E652FF4F6B
:1018B00025913491388F2F8BFC01E452FF4F859195
:1018C00094919A8F898F09C02F5F3F4F0C962D30CE
:1018D000310509F0CCCF1C8A1B8A8F89988D892B02
:1018E00009F444C08C858631E8F590916800883011
:1018F00050F021E08E3008F420E081E001C0880F34
:101900002A95EAF701C084E0892B809368008C85D2
:10191000883038F08E3040F0863148F4ECE6F0E064
:1019200008C0EDE6F0E005C0EBE6F0E002C0E0E064
:10193000F0E04081883030F491E001C0990F8A9541
:10194000EAF70EC0282F30E08E3018F42850310905
:1019500002C02E50310991E001C0990F2A95EAF793
:10196000942B9083898D9A8D0E94440ACE01DF9139
:10197000CF91FF90EF90DF90CF900C944B0AFC0139
:101980002485263140F5283028F02E3030F0ECE662
:10199000F0E005C0EDE6F0E002C0EBE6F0E03081FB
:1019A000283038F481E090E001C0880F2A95EAF7EA
:1019B0000FC0422F50E02E3018F44850510902C099
:1019C0004E50510981E090E001C0880F4A95EAF736
:1019D000809583238083089528E931E0FC013183D9
:1019E00020830C94BF0CF8940C94460D97FB072EA3
:1019F00016F4009407D077FD09D00E94320D07FC41
:101A000005D03EF4909581959F4F0895709561950E
:101A10007F4F0895A1E21A2EAA1BBB1BFD010DC02A
:101A2000AA1FBB1FEE1FFF1FA217B307E407F5078E
:101A300020F0A21BB30BE40BF50B661F771F881F6A
:101A4000991F1A9469F760957095809590959B0100
:101A5000AC01BD01CF010895EE0FFF1F0590F49179
:101A6000E02D0994AA1BBB1B51E107C0AA1FBB1F95
:101A7000A617B70710F0A61BB70B881F991F5A951A
:101A8000A9F780959095BC01CD01089510E0C9EBB0
:101A9000D0E004C0FE010E942C0D2196CA3BD10764
:061AA000C9F7F894FFCF26
:101AA60049447E00181000000000000000FFFFFF00
:101AB600FE000001014944203A20002044415441DF
:101AC600203A20004672616D6520002073656E74B1
:101AD600207375636365737366756C6C79206166D4
:101AE60074657220002072657472696573005472A1
:101AF600616E736D697373696F6E206661696C657B
:101B0600642C206572726F72203A20005842656517
:101B160020627573792E2E2E005842454520524577
:101B2600534554000000000052080107FB07270830
:101B36000B08470800000000D20A0107110AD6095F
:041B4600F709290A68
:00000001FF
