:100000000C9435000C945D000C945D000C945D0024
:100010000C945D000C945D000C945D000C945D00EC
:100020000C945D000C945D000C945D000C945D00DC
:100030000C945D000C945D000C945D000C945D00CC
:100040000C9492000C945D000C9409020C944C02E8
:100050000C945D000C945D000C945D000C945D00AC
:100060000C945D000C945D000F0311241FBECFEFB4
:10007000D8E0DEBFCDBF11E0A0E0B1E0EEE3F7E0F5
:1000800002C005900D92A031B107D9F721E0A0E19F
:10009000B1E001C01D92A73CB207E1F710E0C5E353
:1000A000D0E004C02197FE010E949703C433D1071A
:1000B000C9F70E9462010C9472030C94000040E89E
:1000C00055E260E070E08DE191E00C9487028DE1F3
:1000D00091E00E946F01892B71F08DE191E00E9407
:1000E0009B01909313018093120181E090E0909323
:1000F00011018093100165E070E080E090E00E94C3
:1001000001018091100190911101019751F46091CA
:1001100012018DE191E00E94C6011092110110922E
:10012000100108951F920F920FB60F9211242F9372
:100130003F938F939F93AF93BF93809115019091BD
:100140001601A0911701B09118013091140123E01C
:10015000230F2D3720F40196A11DB11D05C026E8FF
:10016000230F0296A11DB11D209314018093150148
:1001700090931601A0931701B09318018091190173
:1001800090911A01A0911B01B0911C010196A11D33
:10019000B11D8093190190931A01A0931B01B09394
:1001A0001C01BF91AF919F918F913F912F910F9023
:1001B0000FBE0F901F9018953FB7F89480911901CA
:1001C00090911A01A0911B01B0911C0126B5A89B2A
:1001D00005C02F3F19F00196A11DB11D3FBFBA2FD9
:1001E000A92F982F8827820F911DA11DB11DBC0139
:1001F000CD0142E0660F771F881F991F4A95D1F7FE
:100200000895CF92DF92EF92FF92CF93DF936B012D
:100210007C010E94DC00EB01C114D104E104F10473
:1002200079F00E94DC006C1B7D0B683E7340A0F3EC
:1002300081E0C81AD108E108F108C851DC4FECCFC1
:10024000DF91CF91FF90EF90DF90CF900895789459
:1002500084B5826084BD84B5816084BD85B58260CB
:1002600085BD85B5816085BDEEE6F0E08081816069
:100270008083E1E8F0E01082808182608083808169
:1002800081608083E0E8F0E0808181608083E1EB41
:10029000F0E0808184608083E0EBF0E08081816029
:1002A0008083EAE7F0E080818460808380818260DF
:1002B00080838081816080838081806880831092C8
:1002C000C10008950E9427010E945F00C3E4D2E0AC
:1002D0000E9467002097E1F30E944302F9CFFC01DE
:1002E00024853585F901E05CFF4F8081918132964C
:1002F00020813181821B930B8F7399270895DC0134
:100300001C96ED91FC911D97DF01A05CBF4F2D91D4
:100310003C91119712968D919C911197281739074E
:1003200039F08D919C91E80FF91F808190E008953C
:100330008FEF9FEF0895FC01A485B585FD01E05C7A
:10034000FF4F2081318132968081918128173907B2
:1003500079F080819181A80FB91F8C912081318122
:100360002F5F3F4F2F7333273183208390E0089511
:100370008FEF9FEF0895FC0181A1882329F0A489C4
:10038000B5898C9186FFFBCF11A208950F931F931F
:10039000CF93DF93FC01A685B7858D01005C1F4FCD
:1003A000E8018881998101968F739927AD014E5B91
:1003B0005F4FEA012881398182179307D1F3E80161
:1003C00028813981A20FB31F6C93A685B785A05CE5
:1003D000BF4F11969C938E93A689B7892C9181E08B
:1003E00090E0078C02C0880F991F0A94E2F7822BD5
:1003F0008C9381E081A30488F589E02D808180645D
:10040000808381E090E0DF91CF911F910F9108955B
:1004100008951F920F920FB60F9211242F934F93AE
:100420005F938F939F93EF93FF938091C00082FD22
:100430001CC02091C6008091C3019091C401019617
:100440008F7399274091C5015091C6018417950774
:1004500071F0E091C301F091C401ED57FE4F20838C
:100460009093C4018093C30102C08091C600FF91A4
:10047000EF919F918F915F914F912F910F900FBEB0
:100480000F901F9018958DE191E00E946F01892BCC
:1004900011F00C94080208951F920F920FB60F925C
:1004A00011242F933F938F939F93EF93FF9320916A
:1004B0007F01309180018091810190918201281704
:1004C000390731F48091C1008F7D8093C10014C041
:1004D000E0918101F0918201E15CFE4F20818091E9
:1004E00081019091820101968F73992790938201E7
:1004F000809381012093C600FF91EF919F918F918E
:100500003F912F910F900FBE0F901F901895CF9293
:10051000DF92EF92FF920F931F93CF93DF93EC0143
:100520006A017B014115514E6105710509F1EC89A4
:10053000FD8981E090E008A002C0880F991F0A940D
:10054000E2F7808360E079E08DE390E0A701960117
:100550000E94750389019A0101501109210931098D
:100560003695279517950795980101151041A8F024
:10057000EC89FD89108260E874E88EE190E0A701C3
:1005800096010E947503DA01C9010197A109B10919
:10059000B695A795979587959C01E889F989308349
:1005A000EA89FB89208319A2EE89FF89408181E0D5
:1005B00090E09C010C8C02C0220F331F0A94E2F7DA
:1005C000242B2083EE89FF8940819C010D8C02C081
:1005D000220F331F0A94E2F7242B2083EE89FF8930
:1005E00040819C010E8C02C0220F331F0A94E2F757
:1005F000242B2083EE89FF8920810F8C02C0880F75
:10060000991F0A94E2F7809582238083DF91CF912E
:100610001F910F91FF90EF90DF90CF900895EDE143
:10062000F1E01382128288EE93E0A0E0B0E08483D0
:100630009583A683B78384E091E09183808383E8E8
:1006400091E0958784878FE391E09787868785EC93
:1006500090E0918B808B84EC90E0938B828B80EC8C
:1006600090E0958B848B81EC90E0978B868B82EC6D
:1006700090E0918F808F86EC90E0938F828F84E062
:10068000848F83E0858F87E0868F85E0878F81E088
:1006900080A30895CF92DF92EF92FF920F931F9362
:1006A000CF93DF936C01EB017B01E40EF51E00E0BC
:1006B00010E0CE15DF0561F06991D601ED91FC9156
:1006C0000190F081E02DC6010995080F191FF1CFA7
:1006D000C801DF91CF911F910F91FF90EF90DF90B4
:1006E000CF900895F8940C949D03A1E21A2EAA1BB2
:1006F000BB1BFD010DC0AA1FBB1FEE1FFF1FA217D2
:10070000B307E407F50720F0A21BB30BE40BF50BCE
:10071000661F771F881F991F1A9469F76095709557
:10072000809590959B01AC01BD01CF010895EE0F1E
:0E073000FF1F0590F491E02D0994F894FFCF7F
:10073E0000000000C6014A036F019B017F01BB014F
:00000001FF
